{
  "contractName": "SmartPlacesProtocol",
  "abi": [
    {
      "inputs": [
        {
          "internalType": "address",
          "name": "param_addr",
          "type": "address"
        },
        {
          "internalType": "address",
          "name": "char_addr",
          "type": "address"
        }
      ],
      "stateMutability": "nonpayable",
      "type": "constructor"
    },
    {
      "anonymous": false,
      "inputs": [
        {
          "indexed": false,
          "internalType": "bool",
          "name": "toggle",
          "type": "bool"
        }
      ],
      "name": "AntiSnipingFailsafeSetTo",
      "type": "event"
    },
    {
      "anonymous": false,
      "inputs": [
        {
          "indexed": true,
          "internalType": "address",
          "name": "owner",
          "type": "address"
        },
        {
          "indexed": true,
          "internalType": "address",
          "name": "spender",
          "type": "address"
        },
        {
          "indexed": false,
          "internalType": "uint256",
          "name": "value",
          "type": "uint256"
        }
      ],
      "name": "Approval",
      "type": "event"
    },
    {
      "anonymous": false,
      "inputs": [
        {
          "indexed": false,
          "internalType": "uint256",
          "name": "minTokensBeforeSwap",
          "type": "uint256"
        }
      ],
      "name": "MinTokensBeforeSwapUpdated",
      "type": "event"
    },
    {
      "anonymous": false,
      "inputs": [
        {
          "indexed": true,
          "internalType": "address",
          "name": "previousOwner",
          "type": "address"
        },
        {
          "indexed": true,
          "internalType": "address",
          "name": "newOwner",
          "type": "address"
        }
      ],
      "name": "OwnershipTransferred",
      "type": "event"
    },
    {
      "anonymous": false,
      "inputs": [
        {
          "indexed": false,
          "internalType": "uint256",
          "name": "tokensSwapped",
          "type": "uint256"
        },
        {
          "indexed": false,
          "internalType": "uint256",
          "name": "ethReceived",
          "type": "uint256"
        },
        {
          "indexed": false,
          "internalType": "uint256",
          "name": "tokensIntoLiqudity",
          "type": "uint256"
        }
      ],
      "name": "SwapAndLiquify",
      "type": "event"
    },
    {
      "anonymous": false,
      "inputs": [
        {
          "indexed": false,
          "internalType": "bool",
          "name": "enabled",
          "type": "bool"
        }
      ],
      "name": "SwapAndLiquifyEnabledUpdated",
      "type": "event"
    },
    {
      "anonymous": false,
      "inputs": [
        {
          "indexed": true,
          "internalType": "address",
          "name": "from",
          "type": "address"
        },
        {
          "indexed": true,
          "internalType": "address",
          "name": "to",
          "type": "address"
        },
        {
          "indexed": false,
          "internalType": "uint256",
          "name": "value",
          "type": "uint256"
        }
      ],
      "name": "Transfer",
      "type": "event"
    },
    {
      "inputs": [],
      "name": "SmartPlacesUniswapV2Pair",
      "outputs": [
        {
          "internalType": "address",
          "name": "",
          "type": "address"
        }
      ],
      "stateMutability": "view",
      "type": "function"
    },
    {
      "inputs": [],
      "name": "_burnAddress",
      "outputs": [
        {
          "internalType": "address",
          "name": "",
          "type": "address"
        }
      ],
      "stateMutability": "view",
      "type": "function"
    },
    {
      "inputs": [],
      "name": "_burnFee",
      "outputs": [
        {
          "internalType": "uint256",
          "name": "",
          "type": "uint256"
        }
      ],
      "stateMutability": "view",
      "type": "function"
    },
    {
      "inputs": [],
      "name": "_charityAddress",
      "outputs": [
        {
          "internalType": "address",
          "name": "",
          "type": "address"
        }
      ],
      "stateMutability": "view",
      "type": "function"
    },
    {
      "inputs": [],
      "name": "_charityFee",
      "outputs": [
        {
          "internalType": "uint256",
          "name": "",
          "type": "uint256"
        }
      ],
      "stateMutability": "view",
      "type": "function"
    },
    {
      "inputs": [],
      "name": "_liquidityFee",
      "outputs": [
        {
          "internalType": "uint256",
          "name": "",
          "type": "uint256"
        }
      ],
      "stateMutability": "view",
      "type": "function"
    },
    {
      "inputs": [],
      "name": "_marketingFee",
      "outputs": [
        {
          "internalType": "uint256",
          "name": "",
          "type": "uint256"
        }
      ],
      "stateMutability": "view",
      "type": "function"
    },
    {
      "inputs": [],
      "name": "_marketingWalletAddress",
      "outputs": [
        {
          "internalType": "address",
          "name": "",
          "type": "address"
        }
      ],
      "stateMutability": "view",
      "type": "function"
    },
    {
      "inputs": [],
      "name": "_maxTxAmount",
      "outputs": [
        {
          "internalType": "uint256",
          "name": "",
          "type": "uint256"
        }
      ],
      "stateMutability": "view",
      "type": "function"
    },
    {
      "inputs": [
        {
          "internalType": "address",
          "name": "",
          "type": "address"
        }
      ],
      "name": "_shouldTakeFee",
      "outputs": [
        {
          "internalType": "bool",
          "name": "",
          "type": "bool"
        }
      ],
      "stateMutability": "view",
      "type": "function"
    },
    {
      "inputs": [],
      "name": "_taxFee",
      "outputs": [
        {
          "internalType": "uint256",
          "name": "",
          "type": "uint256"
        }
      ],
      "stateMutability": "view",
      "type": "function"
    },
    {
      "inputs": [],
      "name": "antiSniping_blocks",
      "outputs": [
        {
          "internalType": "uint256",
          "name": "",
          "type": "uint256"
        }
      ],
      "stateMutability": "view",
      "type": "function"
    },
    {
      "inputs": [],
      "name": "antiSniping_failsafe",
      "outputs": [
        {
          "internalType": "bool",
          "name": "",
          "type": "bool"
        }
      ],
      "stateMutability": "view",
      "type": "function"
    },
    {
      "inputs": [],
      "name": "noFeesBetweenUsersEnabled",
      "outputs": [
        {
          "internalType": "bool",
          "name": "",
          "type": "bool"
        }
      ],
      "stateMutability": "view",
      "type": "function"
    },
    {
      "inputs": [],
      "name": "owner",
      "outputs": [
        {
          "internalType": "address",
          "name": "",
          "type": "address"
        }
      ],
      "stateMutability": "view",
      "type": "function"
    },
    {
      "inputs": [],
      "name": "renounceOwnership",
      "outputs": [],
      "stateMutability": "nonpayable",
      "type": "function"
    },
    {
      "inputs": [],
      "name": "salePenalizationEnabled",
      "outputs": [
        {
          "internalType": "bool",
          "name": "",
          "type": "bool"
        }
      ],
      "stateMutability": "view",
      "type": "function"
    },
    {
      "inputs": [],
      "name": "shouldBurn",
      "outputs": [
        {
          "internalType": "bool",
          "name": "",
          "type": "bool"
        }
      ],
      "stateMutability": "view",
      "type": "function"
    },
    {
      "inputs": [],
      "name": "shouldTakeCharity",
      "outputs": [
        {
          "internalType": "bool",
          "name": "",
          "type": "bool"
        }
      ],
      "stateMutability": "view",
      "type": "function"
    },
    {
      "inputs": [],
      "name": "shouldTakeMarketing",
      "outputs": [
        {
          "internalType": "bool",
          "name": "",
          "type": "bool"
        }
      ],
      "stateMutability": "view",
      "type": "function"
    },
    {
      "inputs": [],
      "name": "swapAndLiquifyEnabled",
      "outputs": [
        {
          "internalType": "bool",
          "name": "",
          "type": "bool"
        }
      ],
      "stateMutability": "view",
      "type": "function"
    },
    {
      "inputs": [
        {
          "internalType": "address",
          "name": "newOwner",
          "type": "address"
        }
      ],
      "name": "transferOwnership",
      "outputs": [],
      "stateMutability": "nonpayable",
      "type": "function"
    },
    {
      "inputs": [],
      "name": "uniswapV2Router",
      "outputs": [
        {
          "internalType": "contract IUniswapV2Router02",
          "name": "",
          "type": "address"
        }
      ],
      "stateMutability": "view",
      "type": "function"
    },
    {
      "stateMutability": "payable",
      "type": "receive"
    },
    {
      "inputs": [],
      "name": "name",
      "outputs": [
        {
          "internalType": "string",
          "name": "",
          "type": "string"
        }
      ],
      "stateMutability": "view",
      "type": "function"
    },
    {
      "inputs": [],
      "name": "symbol",
      "outputs": [
        {
          "internalType": "string",
          "name": "",
          "type": "string"
        }
      ],
      "stateMutability": "view",
      "type": "function"
    },
    {
      "inputs": [],
      "name": "decimals",
      "outputs": [
        {
          "internalType": "uint8",
          "name": "",
          "type": "uint8"
        }
      ],
      "stateMutability": "view",
      "type": "function"
    },
    {
      "inputs": [],
      "name": "totalSupply",
      "outputs": [
        {
          "internalType": "uint256",
          "name": "",
          "type": "uint256"
        }
      ],
      "stateMutability": "view",
      "type": "function"
    },
    {
      "inputs": [
        {
          "internalType": "bool",
          "name": "toggle",
          "type": "bool"
        }
      ],
      "name": "manualLaunchOverride",
      "outputs": [],
      "stateMutability": "nonpayable",
      "type": "function"
    },
    {
      "inputs": [
        {
          "internalType": "bool",
          "name": "failsafe",
          "type": "bool"
        }
      ],
      "name": "setAntiSnipeFailsafe",
      "outputs": [],
      "stateMutability": "nonpayable",
      "type": "function"
    },
    {
      "inputs": [
        {
          "internalType": "address",
          "name": "account",
          "type": "address"
        }
      ],
      "name": "balanceOf",
      "outputs": [
        {
          "internalType": "uint256",
          "name": "",
          "type": "uint256"
        }
      ],
      "stateMutability": "view",
      "type": "function"
    },
    {
      "inputs": [
        {
          "internalType": "address",
          "name": "recipient",
          "type": "address"
        },
        {
          "internalType": "uint256",
          "name": "amount",
          "type": "uint256"
        }
      ],
      "name": "transfer",
      "outputs": [
        {
          "internalType": "bool",
          "name": "",
          "type": "bool"
        }
      ],
      "stateMutability": "nonpayable",
      "type": "function"
    },
    {
      "inputs": [
        {
          "internalType": "address",
          "name": "owner",
          "type": "address"
        },
        {
          "internalType": "address",
          "name": "spender",
          "type": "address"
        }
      ],
      "name": "allowance",
      "outputs": [
        {
          "internalType": "uint256",
          "name": "",
          "type": "uint256"
        }
      ],
      "stateMutability": "view",
      "type": "function"
    },
    {
      "inputs": [
        {
          "internalType": "address",
          "name": "spender",
          "type": "address"
        },
        {
          "internalType": "uint256",
          "name": "amount",
          "type": "uint256"
        }
      ],
      "name": "approve",
      "outputs": [
        {
          "internalType": "bool",
          "name": "",
          "type": "bool"
        }
      ],
      "stateMutability": "nonpayable",
      "type": "function"
    },
    {
      "inputs": [
        {
          "internalType": "address",
          "name": "sender",
          "type": "address"
        },
        {
          "internalType": "address",
          "name": "recipient",
          "type": "address"
        },
        {
          "internalType": "uint256",
          "name": "amount",
          "type": "uint256"
        }
      ],
      "name": "transferFrom",
      "outputs": [
        {
          "internalType": "bool",
          "name": "",
          "type": "bool"
        }
      ],
      "stateMutability": "nonpayable",
      "type": "function"
    },
    {
      "inputs": [
        {
          "internalType": "address",
          "name": "spender",
          "type": "address"
        },
        {
          "internalType": "uint256",
          "name": "addedValue",
          "type": "uint256"
        }
      ],
      "name": "increaseAllowance",
      "outputs": [
        {
          "internalType": "bool",
          "name": "",
          "type": "bool"
        }
      ],
      "stateMutability": "nonpayable",
      "type": "function"
    },
    {
      "inputs": [
        {
          "internalType": "address",
          "name": "spender",
          "type": "address"
        },
        {
          "internalType": "uint256",
          "name": "subtractedValue",
          "type": "uint256"
        }
      ],
      "name": "decreaseAllowance",
      "outputs": [
        {
          "internalType": "bool",
          "name": "",
          "type": "bool"
        }
      ],
      "stateMutability": "nonpayable",
      "type": "function"
    },
    {
      "inputs": [
        {
          "internalType": "address",
          "name": "account",
          "type": "address"
        }
      ],
      "name": "isExcludedFromReward",
      "outputs": [
        {
          "internalType": "bool",
          "name": "",
          "type": "bool"
        }
      ],
      "stateMutability": "view",
      "type": "function"
    },
    {
      "inputs": [],
      "name": "totalFees",
      "outputs": [
        {
          "internalType": "uint256",
          "name": "",
          "type": "uint256"
        }
      ],
      "stateMutability": "view",
      "type": "function"
    },
    {
      "inputs": [
        {
          "internalType": "uint256",
          "name": "tAmount",
          "type": "uint256"
        }
      ],
      "name": "deliver",
      "outputs": [],
      "stateMutability": "nonpayable",
      "type": "function"
    },
    {
      "inputs": [
        {
          "internalType": "uint256",
          "name": "tAmount",
          "type": "uint256"
        },
        {
          "internalType": "bool",
          "name": "deductTransferFee",
          "type": "bool"
        }
      ],
      "name": "reflectionFromToken",
      "outputs": [
        {
          "internalType": "uint256",
          "name": "",
          "type": "uint256"
        }
      ],
      "stateMutability": "view",
      "type": "function"
    },
    {
      "inputs": [
        {
          "internalType": "uint256",
          "name": "rAmount",
          "type": "uint256"
        }
      ],
      "name": "tokenFromReflection",
      "outputs": [
        {
          "internalType": "uint256",
          "name": "",
          "type": "uint256"
        }
      ],
      "stateMutability": "view",
      "type": "function"
    },
    {
      "inputs": [
        {
          "internalType": "address",
          "name": "account",
          "type": "address"
        }
      ],
      "name": "excludeFromReward",
      "outputs": [],
      "stateMutability": "nonpayable",
      "type": "function"
    },
    {
      "inputs": [
        {
          "internalType": "address",
          "name": "account",
          "type": "address"
        }
      ],
      "name": "includeInReward",
      "outputs": [],
      "stateMutability": "nonpayable",
      "type": "function"
    },
    {
      "inputs": [
        {
          "internalType": "address",
          "name": "account",
          "type": "address"
        },
        {
          "internalType": "bool",
          "name": "isExcluded",
          "type": "bool"
        }
      ],
      "name": "setIsExcludedFromTXLimit",
      "outputs": [],
      "stateMutability": "nonpayable",
      "type": "function"
    },
    {
      "inputs": [
        {
          "internalType": "address",
          "name": "account",
          "type": "address"
        }
      ],
      "name": "isExcludedFromTXLimit",
      "outputs": [
        {
          "internalType": "bool",
          "name": "",
          "type": "bool"
        }
      ],
      "stateMutability": "view",
      "type": "function"
    },
    {
      "inputs": [
        {
          "internalType": "address",
          "name": "account",
          "type": "address"
        }
      ],
      "name": "excludeFromFee",
      "outputs": [],
      "stateMutability": "nonpayable",
      "type": "function"
    },
    {
      "inputs": [
        {
          "internalType": "address",
          "name": "account",
          "type": "address"
        }
      ],
      "name": "includeInFee",
      "outputs": [],
      "stateMutability": "nonpayable",
      "type": "function"
    },
    {
      "inputs": [
        {
          "internalType": "uint256",
          "name": "taxFee",
          "type": "uint256"
        }
      ],
      "name": "setTaxFeePercent",
      "outputs": [],
      "stateMutability": "nonpayable",
      "type": "function"
    },
    {
      "inputs": [
        {
          "internalType": "uint256",
          "name": "marketingFee",
          "type": "uint256"
        }
      ],
      "name": "setMarketingFeePercent",
      "outputs": [],
      "stateMutability": "nonpayable",
      "type": "function"
    },
    {
      "inputs": [
        {
          "internalType": "uint256",
          "name": "liquidityFee",
          "type": "uint256"
        }
      ],
      "name": "setLiquidityFeePercent",
      "outputs": [],
      "stateMutability": "nonpayable",
      "type": "function"
    },
    {
      "inputs": [
        {
          "internalType": "uint256",
          "name": "charFee",
          "type": "uint256"
        }
      ],
      "name": "setCharityFeePercent",
      "outputs": [],
      "stateMutability": "nonpayable",
      "type": "function"
    },
    {
      "inputs": [
        {
          "internalType": "uint256",
          "name": "burnFee",
          "type": "uint256"
        }
      ],
      "name": "setBurnFeePercent",
      "outputs": [],
      "stateMutability": "nonpayable",
      "type": "function"
    },
    {
      "inputs": [
        {
          "internalType": "uint256",
          "name": "maxTxPercent",
          "type": "uint256"
        }
      ],
      "name": "setMaxTxPercent",
      "outputs": [],
      "stateMutability": "nonpayable",
      "type": "function"
    },
    {
      "inputs": [
        {
          "internalType": "bool",
          "name": "toggle",
          "type": "bool"
        }
      ],
      "name": "setSwapAndLiquifyEnabled",
      "outputs": [],
      "stateMutability": "nonpayable",
      "type": "function"
    },
    {
      "inputs": [
        {
          "internalType": "uint256",
          "name": "blocks",
          "type": "uint256"
        }
      ],
      "name": "setAntiSnipingBlocks",
      "outputs": [],
      "stateMutability": "nonpayable",
      "type": "function"
    },
    {
      "inputs": [
        {
          "internalType": "bool",
          "name": "toggle",
          "type": "bool"
        }
      ],
      "name": "setSalePenalizationEnabled",
      "outputs": [],
      "stateMutability": "nonpayable",
      "type": "function"
    },
    {
      "inputs": [
        {
          "internalType": "address",
          "name": "addr",
          "type": "address"
        }
      ],
      "name": "setMarketingAddress",
      "outputs": [],
      "stateMutability": "nonpayable",
      "type": "function"
    },
    {
      "inputs": [
        {
          "internalType": "address",
          "name": "addr",
          "type": "address"
        }
      ],
      "name": "setCharityAddress",
      "outputs": [],
      "stateMutability": "nonpayable",
      "type": "function"
    },
    {
      "inputs": [
        {
          "internalType": "address",
          "name": "account",
          "type": "address"
        }
      ],
      "name": "isExcludedFromFee",
      "outputs": [
        {
          "internalType": "bool",
          "name": "",
          "type": "bool"
        }
      ],
      "stateMutability": "view",
      "type": "function"
    },
    {
      "inputs": [
        {
          "internalType": "address",
          "name": "target_address",
          "type": "address"
        },
        {
          "internalType": "bool",
          "name": "toggle",
          "type": "bool"
        }
      ],
      "name": "setShouldTakeFeeCandidate",
      "outputs": [],
      "stateMutability": "nonpayable",
      "type": "function"
    },
    {
      "inputs": [
        {
          "internalType": "bool",
          "name": "enabled",
          "type": "bool"
        }
      ],
      "name": "setNoFeesBetweenUsersEnabled",
      "outputs": [],
      "stateMutability": "nonpayable",
      "type": "function"
    }
  ],
  "bytecode": "0x610100604052601560c08190527f536d61727420506c616365732050726f746f636f6c000000000000000000000060e090815262000041916008919062000643565b506040805180820190915260078082527f534d4152544545000000000000000000000000000000000000000000000000006020909201918252620000889160099162000643565b50600a805460ff191660099081178255620000a391620007be565b620000b4906406fc23ac006200087e565b600b819055620000c79060001962000910565b620000d590600019620008a0565b600c55600e8054600160ff1991821681179092556003600f55601080548216905560006011819055601281905560138190556014556015805461ff001916905560168290556017829055601880547401000000000000000000000000000000000000000060a060020a60ff021991821681179092556019849055601a849055601b80549091169091179055601c829055601d91909155601e8054600160a860020a0319167401000000000000000000000000000000000000dead179055602080549091169055600b54620001b9906064640100000000620005c9810262001a321704565b6021819055620001d990600a64010000000062001a32620005c982021704565b6022556023805460ff19169055348015620001f357600080fd5b506040516200449438038062004494833981016040819052620002169162000724565b6200023c6200022d640100000000620005e0810204565b640100000000620005e4810204565b600c546001600062000256640100000000620005e0810204565b600160a060020a0316600160a060020a031681526020019081526020016000208190555060007310ed43c718714eb63d5aa57b78b54704e256024e905080600160a060020a031663c45a01556040518163ffffffff167c010000000000000000000000000000000000000000000000000000000002815260040160206040518083038186803b158015620002e957600080fd5b505afa158015620002fe573d6000803e3d6000fd5b505050506040513d601f19601f8201168201806040525081019062000324919062000706565b600160a060020a031663c9c653963083600160a060020a031663ad5c46486040518163ffffffff167c010000000000000000000000000000000000000000000000000000000002815260040160206040518083038186803b1580156200038957600080fd5b505afa1580156200039e573d6000803e3d6000fd5b505050506040513d601f19601f82011682018060405250810190620003c4919062000706565b6040517c010000000000000000000000000000000000000000000000000000000063ffffffff8516028152600160a060020a03928316600482015291166024820152604401602060405180830381600087803b1580156200042457600080fd5b505af115801562000439573d6000803e3d6000fd5b505050506040513d601f19601f820116820180604052508101906200045f919062000706565b6c01000000000000000000000000600160a060020a03918216810260a052908216026080526001600460006200049d64010000000062000634810204565b600160a060020a03908116825260208083019390935260409182016000908120805495151560ff1996871617905530815260048452828120805486166001908117909155601880548a8516600160a060020a031991821617909155601b80548a8616908316179055601e80548516845260059096529382208054909616811790955592546006805495860181559093527ff652222313e28459528d920b65115c16c04f3efc82aaedc97be59f3f377c0d3f90930180549091169190921617905562000570640100000000620005e0810204565b600160a060020a03166000600160a060020a03167fddf252ad1be2c89b69c2b068fc378daa952ba7f163c4a11628f55a4df523b3ef600b54604051620005b891815260200190565b60405180910390a350505062000985565b6000620005d782846200075c565b90505b92915050565b3390565b60008054600160a060020a03838116600160a060020a0319831681178455604051919092169283917f8be0079c531659141344cd1fd0a4f28419497f9722a3daafe3b4186f6b6457e09190a35050565b600054600160a060020a031690565b8280546200065190620008ba565b90600052602060002090601f016020900481019282620006755760008555620006c0565b82601f106200069057805160ff1916838001178555620006c0565b82800160010185558215620006c0579182015b82811115620006c0578251825591602001919060010190620006a3565b50620006ce929150620006d2565b5090565b5b80821115620006ce5760008155600101620006d3565b8051600160a060020a03811681146200070157600080fd5b919050565b6000602082840312156200071957600080fd5b620005d782620006e9565b600080604083850312156200073857600080fd5b6200074383620006e9565b91506200075360208401620006e9565b90509250929050565b6000826200076e576200076e62000956565b500490565b600181815b80851115620007b657816000190482111562000798576200079862000927565b80851615620007a657918102915b6002909404939080029062000778565b509250929050565b6000620005d760ff841683600082620007da57506001620005da565b81620007e957506000620005da565b81600181146200080257600281146200080d576200082e565b6001915050620005da565b60ff84111562000821576200082162000927565b8360020a915050620005da565b5060208310610133831016604e8410600b841016171562000853575081810a620005da565b6200085f838362000773565b806000190482111562000876576200087662000927565b029392505050565b60008160001904831182151516156200089b576200089b62000927565b500290565b600082821015620008b557620008b562000927565b500390565b600281046001821680620008cf57607f821691505b602082108114156200090a577f4e487b7100000000000000000000000000000000000000000000000000000000600052602260045260246000fd5b50919050565b60008262000922576200092262000956565b500690565b7f4e487b7100000000000000000000000000000000000000000000000000000000600052601160045260246000fd5b7f4e487b7100000000000000000000000000000000000000000000000000000000600052601260045260246000fd5b6080516c01000000000000000000000000900460a0516c010000000000000000000000009004613a9162000a03600039600081816108a201528181611d2001528181611f36015261202b0152600081816104bd01528181612812015281816128dd01528181612932015281816129ac01526129d30152613a916000f3fe6080604052600436106103aa5760003560e060020a900480634c67efbe116101eb578063a457c2d711610111578063d543dbeb116100a4578063ea2f0b3711610073578063ea2f0b3714610b42578063f2a3254414610b62578063f2fde38b14610b82578063f59a67e114610ba257600080fd5b8063d543dbeb14610aa6578063dd62ed3e14610ac6578063e23ba26d14610b0c578063e6918f7314610b2257600080fd5b8063bd9c7f10116100e0578063bd9c7f1014610a30578063c0b0fda214610a50578063c49b9a8014610a66578063cea2695814610a8657600080fd5b8063a457c2d7146109b0578063a9059cbb146109d0578063af41063b146109f0578063bd3900c014610a1057600080fd5b80637ebcc47b116101895780638ee88c53116101585780638ee88c531461093b578063906e9dd01461095b57806395d89b411461097b5780639e1ac9f61461099057600080fd5b80637ebcc47b1461089057806388f82020146108c45780638da5cb5b146108fd5780638de35a3b1461091b57600080fd5b80636bc87c3a116101c55780636bc87c3a1461082f57806370a0823114610845578063715018a6146108655780637d1db4a51461087a57600080fd5b80634c67efbe146107b557806352390c02146107d65780635342acb4146107f657600080fd5b8063313ce567116102d057806340f8007a1161026e5780634549b0391161023d5780634549b03914610726578063457c194c146107465780634815d519146107665780634a74bb021461079657600080fd5b806340f8007a146106b05780634144d9e4146106c6578063437823ec146106e6578063452687061461070657600080fd5b80633685d419116102aa5780633685d4191461063a578063395093511461065a5780633b124fe71461067a5780633bd5d1731461069057600080fd5b8063313ce567146105d657806331b48055146105f8578063349f65941461061957600080fd5b806318160ddd1161034857806323b872dd1161031757806323b872dd1461055c5780632d8381191461057c5780632f01c7641461059c5780632ff3a70c146105b657600080fd5b806318160ddd146104f757806318ece7831461050c57806319a8ac9e1461052657806322976e0d1461054657600080fd5b80630c9be46d116103845780630c9be46d146104335780631112efb51461045357806313114a9d1461048c5780631694505e146104ab57600080fd5b8063061c82d0146103b657806306fdde03146103d8578063095ea7b31461040357600080fd5b366103b157005b600080fd5b3480156103c257600080fd5b506103d66103d136600461375d565b610bbc565b005b3480156103e457600080fd5b506103ed610bf7565b6040516103fa91906137c7565b60405180910390f35b34801561040f57600080fd5b5061042361041e366004613716565b610c89565b60405190151581526020016103fa565b34801561043f57600080fd5b506103d661044e36600461362d565b610ca0565b34801561045f57600080fd5b5061042361046e36600461362d565b600160a060020a031660009081526007602052604090205460ff1690565b34801561049857600080fd5b50600d545b6040519081526020016103fa565b3480156104b757600080fd5b506104df7f000000000000000000000000000000000000000000000000000000000000000081565b604051600160a060020a0390911681526020016103fa565b34801561050357600080fd5b50600b5461049d565b34801561051857600080fd5b506023546104239060ff1681565b34801561053257600080fd5b50601b546104df90600160a060020a031681565b34801561055257600080fd5b5061049d60165481565b34801561056857600080fd5b506104236105773660046136a0565b610cfc565b34801561058857600080fd5b5061049d61059736600461375d565b610d65565b3480156105a857600080fd5b50600e546104239060ff1681565b3480156105c257600080fd5b506103d66105d13660046136e1565b610e01565b3480156105e257600080fd5b50600a5460405160ff90911681526020016103fa565b34801561060457600080fd5b50601e546104239060a060020a900460ff1681565b34801561062557600080fd5b506018546104239060a060020a900460ff1681565b34801561064657600080fd5b506103d661065536600461362d565b610e59565b34801561066657600080fd5b50610423610675366004613716565b611030565b34801561068657600080fd5b5061049d60115481565b34801561069c57600080fd5b506103d66106ab36600461375d565b611066565b3480156106bc57600080fd5b5061049d60195481565b3480156106d257600080fd5b506018546104df90600160a060020a031681565b3480156106f257600080fd5b506103d661070136600461362d565b61117b565b34801561071257600080fd5b506103d66107213660046136e1565b6111cc565b34801561073257600080fd5b5061049d610741366004613776565b611224565b34801561075257600080fd5b506103d661076136600461375d565b6112e2565b34801561077257600080fd5b5061042361078136600461362d565b60246020526000908152604090205460ff1681565b3480156107a257600080fd5b5060155461042390610100900460ff1681565b3480156107c157600080fd5b50601b546104239060a060020a900460ff1681565b3480156107e257600080fd5b506103d66107f136600461362d565b611347565b34801561080257600080fd5b5061042361081136600461362d565b600160a060020a031660009081526004602052604090205460ff1690565b34801561083b57600080fd5b5061049d60135481565b34801561085157600080fd5b5061049d61086036600461362d565b6114d3565b34801561087157600080fd5b506103d6611532565b34801561088657600080fd5b5061049d60215481565b34801561089c57600080fd5b506104df7f000000000000000000000000000000000000000000000000000000000000000081565b3480156108d057600080fd5b506104236108df36600461362d565b600160a060020a031660009081526005602052604090205460ff1690565b34801561090957600080fd5b50600054600160a060020a03166104df565b34801561092757600080fd5b506103d6610936366004613742565b61156b565b34801561094757600080fd5b506103d661095636600461375d565b6115ab565b34801561096757600080fd5b506103d661097636600461362d565b6115dd565b34801561098757600080fd5b506103ed611639565b34801561099c57600080fd5b506103d66109ab366004613742565b611648565b3480156109bc57600080fd5b506104236109cb366004613716565b611690565b3480156109dc57600080fd5b506104236109eb366004613716565b6116df565b3480156109fc57600080fd5b506103d6610a0b36600461375d565b6116ec565b348015610a1c57600080fd5b50601e546104df90600160a060020a031681565b348015610a3c57600080fd5b506103d6610a4b366004613742565b611750565b348015610a5c57600080fd5b5061049d601c5481565b348015610a7257600080fd5b506103d6610a81366004613742565b611790565b348015610a9257600080fd5b506103d6610aa136600461375d565b611806565b348015610ab257600080fd5b506103d6610ac136600461375d565b611869565b348015610ad257600080fd5b5061049d610ae1366004613667565b600160a060020a03918216600090815260036020908152604080832093909416825291909152205490565b348015610b1857600080fd5b5061049d600f5481565b348015610b2e57600080fd5b506103d6610b3d36600461375d565b6118bd565b348015610b4e57600080fd5b506103d6610b5d36600461362d565b6118ef565b348015610b6e57600080fd5b506103d6610b7d366004613742565b61193d565b348015610b8e57600080fd5b506103d6610b9d36600461362d565b61197d565b348015610bae57600080fd5b506010546104239060ff1681565b600054600160a060020a03163314610bf25760405160e560020a62461bcd028152600401610be99061381c565b60405180910390fd5b601155565b606060088054610c0690613935565b80601f0160208091040260200160405190810160405280929190818152602001828054610c3290613935565b8015610c7f5780601f10610c5457610100808354040283529160200191610c7f565b820191906000526020600020905b815481529060010190602001808311610c6257829003601f168201915b5050505050905090565b6000610c96338484611a3e565b5060015b92915050565b600054600160a060020a03163314610ccd5760405160e560020a62461bcd028152600401610be99061381c565b601b805473ffffffffffffffffffffffffffffffffffffffff1916600160a060020a0392909216919091179055565b6000610d09848484611b9c565b610d5b8433610d56856040518060600160405280602881526020016139ef60289139600160a060020a038a16600090815260036020908152604080832033845290915290205491906120a8565b611a3e565b5060019392505050565b6000600c54821115610de4576040805160e560020a62461bcd0281526020600482015260248101919091527f546f6b656e7346726f6d5265666c656374696f6e3a20416d6f756e74206d757360448201527f74206265206c657373207468616e20746f74616c207265666c656374696f6e736064820152608401610be9565b6000610dee6120d7565b9050610dfa8382611a32565b9392505050565b600054600160a060020a03163314610e2e5760405160e560020a62461bcd028152600401610be99061381c565b600160a060020a03919091166000908152600760205260409020805460ff1916911515919091179055565b600054600160a060020a03163314610e865760405160e560020a62461bcd028152600401610be99061381c565b600160a060020a03811660009081526005602052604090205460ff16610ef15760405160e560020a62461bcd02815260206004820152601b60248201527f4163636f756e7420697320616c726561647920696e636c7564656400000000006044820152606401610be9565b60005b60065481101561102c5781600160a060020a031660068281548110610f1b57610f1b6139c0565b600091825260209091200154600160a060020a0316141561101a5760068054610f469060019061391e565b81548110610f5657610f566139c0565b60009182526020909120015460068054600160a060020a039092169183908110610f8257610f826139c0565b6000918252602080832091909101805473ffffffffffffffffffffffffffffffffffffffff1916600160a060020a039485161790559184168152600282526040808220829055600590925220805460ff191690556006805480610fe757610fe76139a7565b6000828152602090208101600019908101805473ffffffffffffffffffffffffffffffffffffffff191690550190555050565b8061102481613973565b915050610ef4565b5050565b336000818152600360209081526040808320600160a060020a03871684529091528120549091610c96918590610d5690866120fa565b3360008181526005602052604090205460ff16156110ef5760405160e560020a62461bcd02815260206004820152602c60248201527f4578636c75646564206164647265737365732063616e6e6f742063616c6c207460448201527f6869732066756e6374696f6e00000000000000000000000000000000000000006064820152608401610be9565b6040805180820190915260008082526020820181905290611111908490612106565b50505050600160a060020a03841660009081526001602052604090205491925061113d9190508261225c565b600160a060020a038316600090815260016020526040902055600c54611163908261225c565b600c55600d5461117390846120fa565b600d55505050565b600054600160a060020a031633146111a85760405160e560020a62461bcd028152600401610be99061381c565b600160a060020a03166000908152600460205260409020805460ff19166001179055565b600054600160a060020a031633146111f95760405160e560020a62461bcd028152600401610be99061381c565b600160a060020a03919091166000908152602460205260409020805460ff1916911515919091179055565b6000600b5483111561127b5760405160e560020a62461bcd02815260206004820152601f60248201527f416d6f756e74206d757374206265206c657373207468616e20737570706c79006044820152606401610be9565b816112b15760408051808201909152600080825260208201819052906112a2908590612106565b50939550610c9a945050505050565b60408051808201909152600080825260208201819052906112d3908590612106565b50929550610c9a945050505050565b600054600160a060020a0316331461130f5760405160e560020a62461bcd028152600401610be99061381c565b6000811161132c576018805460a060020a60ff0219169055601655565b6018805460a060020a60ff02191660a060020a179055601655565b600054600160a060020a031633146113745760405160e560020a62461bcd028152600401610be99061381c565b600160a060020a03811660009081526005602052604090205460ff16156114065760405160e560020a62461bcd02815260206004820152602b60248201527f4578636c75646546726f6d5265776172643a204163636f756e7420616c72656160448201527f6479206578636c756465640000000000000000000000000000000000000000006064820152608401610be9565b600160a060020a0381166000908152600160205260409020541561146057600160a060020a03811660009081526001602052604090205461144690610d65565b600160a060020a0382166000908152600260205260409020555b600160a060020a03166000818152600560205260408120805460ff191660019081179091556006805491820181559091527ff652222313e28459528d920b65115c16c04f3efc82aaedc97be59f3f377c0d3f01805473ffffffffffffffffffffffffffffffffffffffff19169091179055565b600160a060020a03811660009081526005602052604081205460ff16156115105750600160a060020a031660009081526002602052604090205490565b600160a060020a038216600090815260016020526040902054610c9a90610d65565b600054600160a060020a0316331461155f5760405160e560020a62461bcd028152600401610be99061381c565b6115696000612268565b565b600054600160a060020a031633146115985760405160e560020a62461bcd028152600401610be99061381c565b6023805460ff1916911515919091179055565b600054600160a060020a031633146115d85760405160e560020a62461bcd028152600401610be99061381c565b601355565b600054600160a060020a0316331461160a5760405160e560020a62461bcd028152600401610be99061381c565b6018805473ffffffffffffffffffffffffffffffffffffffff1916600160a060020a0392909216919091179055565b606060098054610c0690613935565b600e805460ff19168215159081179091556040519081527f59fb13f7f8e0e42ab14ddf13ce1aebeb1474c6c26fe816e079e3fe60d51e1e4b906020015b60405180910390a150565b6000610c963384610d5685604051806060016040528060258152602001613a3760259139336000908152600360209081526040808320600160a060020a038d16845290915290205491906120a8565b6000610c96338484611b9c565b600054600160a060020a031633146117195760405160e560020a62461bcd028152600401610be99061381c565b60198190558061173657601b805460a060020a60ff021916905550565b601b805460a060020a60ff02191660a060020a1790555b50565b600054600160a060020a0316331461177d5760405160e560020a62461bcd028152600401610be99061381c565b6020805460ff1916911515919091179055565b600054600160a060020a031633146117bd5760405160e560020a62461bcd028152600401610be99061381c565b601580548215156101000261ff00199091161790556040517f53726dfcaf90650aa7eb35524f4d3220f07413c8d6cb404cc8c18bf5591bc1599061168590831515815260200190565b600054600160a060020a031633146118335760405160e560020a62461bcd028152600401610be99061381c565b601c8190558061185057601e805460a060020a60ff021916905550565b601e805460a060020a60ff02191660a060020a17905550565b600054600160a060020a031633146118965760405160e560020a62461bcd028152600401610be99061381c565b6118b76127106118b183600b546122c590919063ffffffff16565b90611a32565b60215550565b600054600160a060020a031633146118ea5760405160e560020a62461bcd028152600401610be99061381c565b600f55565b600054600160a060020a0316331461191c5760405160e560020a62461bcd028152600401610be99061381c565b600160a060020a03166000908152600460205260409020805460ff19169055565b600054600160a060020a0316331461196a5760405160e560020a62461bcd028152600401610be99061381c565b6010805460ff1916911515919091179055565b600054600160a060020a031633146119aa5760405160e560020a62461bcd028152600401610be99061381c565b600160a060020a038116611a295760405160e560020a62461bcd02815260206004820152602660248201527f4f776e61626c653a206e6577206f776e657220697320746865207a65726f206160448201527f64647265737300000000000000000000000000000000000000000000000000006064820152608401610be9565b61174d81612268565b6000610dfa82846138da565b600160a060020a038316611abc5760405160e560020a62461bcd028152602060048201526024808201527f45524332303a20617070726f76652066726f6d20746865207a65726f2061646460448201527f72657373000000000000000000000000000000000000000000000000000000006064820152608401610be9565b600160a060020a038216611b3b5760405160e560020a62461bcd02815260206004820152602260248201527f45524332303a20617070726f766520746f20746865207a65726f20616464726560448201527f73730000000000000000000000000000000000000000000000000000000000006064820152608401610be9565b600160a060020a0383811660008181526003602090815260408083209487168084529482529182902085905590518481527f8c5be1e5ebec7d5bd14f71427d1e84f3dd0314c0f7b2291e5b200ac8c7c3b925910160405180910390a3505050565b600160a060020a038316611c1b5760405160e560020a62461bcd02815260206004820152602560248201527f45524332303a207472616e736665722066726f6d20746865207a65726f20616460448201527f64726573730000000000000000000000000000000000000000000000000000006064820152608401610be9565b600160a060020a038216611c9a5760405160e560020a62461bcd02815260206004820152602360248201527f45524332303a207472616e7366657220746f20746865207a65726f206164647260448201527f65737300000000000000000000000000000000000000000000000000000000006064820152608401610be9565b60008111611d135760405160e560020a62461bcd02815260206004820152602960248201527f5472616e7366657220616d6f756e74206d75737420626520677265617465722060448201527f7468616e207a65726f00000000000000000000000000000000000000000000006064820152608401610be9565b601f54158015611d5457507f0000000000000000000000000000000000000000000000000000000000000000600160a060020a031682600160a060020a0316145b80611d61575060205460ff165b15611e16576000611d71846114d3565b11611e0d5760405160e560020a62461bcd02815260206004820152604560248201527f534d415254504c414345533a2041726520796f7520747279696e6720746f206c60448201527f61756e636820776974686f75742061637475616c6c7920686176696e6720746f60648201527f6b656e733f000000000000000000000000000000000000000000000000000000608482015260a401610be9565b611e1643601f55565b600054600160a060020a03848116911614801590611e425750600054600160a060020a03838116911614155b8015611e675750600160a060020a03831660009081526007602052604090205460ff16155b15611ee757602154811115611ee75760405160e560020a62461bcd02815260206004820152603160248201527f534d415254504c414345533a205472616e7366657220616d6f756e742065786360448201527f65656473206d61785478416d6f756e742e0000000000000000000000000000006064820152608401610be9565b6000611ef2306114d3565b90506021548110611f0257506021545b6022546015549082101590610100900460ff168015611f1e5750805b8015611f2d575060155460ff16155b8015611f6b57507f0000000000000000000000000000000000000000000000000000000000000000600160a060020a031685600160a060020a031614155b15611f7e576022549150611f7e826122d1565b600160a060020a03851660009081526004602052604090205460019060ff1680611fc05750600160a060020a03851660009081526004602052604090205460ff165b80611ff1575060235460ff168015611ff15750600160a060020a03861660009081526024602052604090205460ff16155b15611ffa575060005b600e5460009060ff16801561201e575043600f54601f5461201b91906138c2565b10155b15612027575060015b60007f0000000000000000000000000000000000000000000000000000000000000000600160a060020a031687600160a060020a031614801561206c575060105460ff165b15612075575060015b61209e888888866040518060400160405280871515151581526020018815151515815250612371565b5050505050505050565b600081848411156120cf5760405160e560020a62461bcd028152600401610be991906137c7565b505050900390565b60008060006120e4612503565b90925090506120f38282611a32565b9250505090565b6000610dfa82846138c2565b60008060008060006121166135fa565b61214f6040518060c001604052806000815260200160008152602001600081526020016000815260200160008152602001600081525090565b61217360405180606001604052806000815260200160008152602001600081525090565b60008060006121828d8d612685565b828852602088018290529194509250905080600060200201516040860152806001602002015160608601528060026020020151608086015280600360200201518560a001818152505050505060008060006121f38d8660200151876040015188606001516121ee6120d7565b612748565b82875260208088018390526040978801829052885189820151895160808082018c528c8c015182526060808e0151958301959095528c01519a81019a909a5260a0909a015191890191909152929d50909b50995097509395509193505050509295509295509295565b6000610dfa828461391e565b60008054600160a060020a0383811673ffffffffffffffffffffffffffffffffffffffff19831681178455604051919092169283917f8be0079c531659141344cd1fd0a4f28419497f9722a3daafe3b4186f6b6457e09190a35050565b6000610dfa82846138ff565b6015805460ff1916600117905560006122eb826002611a32565b905060006122f9838361225c565b90503031612306836127bb565b600061231330318361225c565b905061231f83826129a6565b60408051858152602081018390529081018490527f17bbfb9a6069321b6ded73bd96327c9e6b7212a5cd51ff219cd61370acafb5619060600160405180910390a150506015805460ff19169055505050565b8161237e5761237e612ab2565b600160a060020a03851660009081526005602052604090205460ff1680156123bf5750600160a060020a03841660009081526005602052604090205460ff16155b156123d4576123cf858585612b24565b6124d4565b600160a060020a03851660009081526005602052604090205460ff161580156124155750600160a060020a03841660009081526005602052604090205460ff165b15612425576123cf858585612c8f565b600160a060020a03851660009081526005602052604090205460ff161580156124675750600160a060020a03841660009081526005602052604090205460ff16155b15612478576123cf85858584612d57565b600160a060020a03851660009081526005602052604090205460ff1680156124b85750600160a060020a03841660009081526005602052604090205460ff165b156124c8576123cf858585612e82565b6124d485858584612d57565b816124fc576124fc601254601155601754601655601454601355601d54601c55601a54601955565b5050505050565b600c54600b546000918291825b60065481101561265557826001600060068481548110612532576125326139c0565b6000918252602080832090910154600160a060020a03168352820192909252604001902054118061259d5750816002600060068481548110612576576125766139c0565b6000918252602080832090910154600160a060020a03168352820192909252604001902054115b156125b357600c54600b54945094505050509091565b6125f960016000600684815481106125cd576125cd6139c0565b6000918252602080832090910154600160a060020a03168352820192909252604001902054849061225c565b92506126416002600060068481548110612615576126156139c0565b6000918252602080832090910154600160a060020a03168352820192909252604001902054839061225c565b91508061264d81613973565b915050612510565b50600b54600c5461266591611a32565b82101561267c57600c54600b549350935050509091565b90939092509050565b6000806126906135fa565b83516000906126a0908790612fca565b905060006126ad8761300d565b905060006126c288886001602002015161303c565b905060006126cf89613082565b905060006126dc8a6130b1565b905060006126ea8b8761225c565b90506126f6818661225c565b9050612702818561225c565b905061270e818461225c565b905061271a818361225c565b6040805160808101825296875260208701959095529385019290925260608401525097919650945092505050565b600080808061275789866122c5565b90506000806127668a886122c5565b905060006127748a896122c5565b905060006127828a8a6122c5565b905061278e858461225c565b935061279a848361225c565b93506127a6848261225c565b949d949c50919a509298505050505050505050565b60408051600280825260608201835260009260208301908036833701905050905030816000815181106127f0576127f06139c0565b6020026020010190600160a060020a03169081600160a060020a0316815250507f0000000000000000000000000000000000000000000000000000000000000000600160a060020a031663ad5c46486040518163ffffffff1660e060020a02815260040160206040518083038186803b15801561286c57600080fd5b505afa158015612880573d6000803e3d6000fd5b505050506040513d601f19601f820116820180604052508101906128a4919061364a565b816001815181106128b7576128b76139c0565b6020026020010190600160a060020a03169081600160a060020a031681525050612902307f000000000000000000000000000000000000000000000000000000000000000084611a3e565b6040517f791ac947000000000000000000000000000000000000000000000000000000008152600160a060020a037f0000000000000000000000000000000000000000000000000000000000000000169063791ac94790612970908590600090869030904290600401613851565b600060405180830381600087803b15801561298a57600080fd5b505af115801561299e573d6000803e3d6000fd5b505050505050565b6129d1307f000000000000000000000000000000000000000000000000000000000000000084611a3e565b7f0000000000000000000000000000000000000000000000000000000000000000600160a060020a031663f305d719823085600080612a18600054600160a060020a031690565b60405163ffffffff881660e060020a028152600160a060020a03958616600482015260248101949094526044840192909252606483015290911660848201524260a482015260c4016060604051808303818588803b158015612a7957600080fd5b505af1158015612a8d573d6000803e3d6000fd5b50505050506040513d601f19601f820116820180604052508101906124fc9190613799565b601154158015612ac25750601354155b8015612ace5750601654155b8015612ada5750601954155b8015612ae65750601c54155b15612aed57565b601180546012556016805460175560138054601455601c8054601d5560198054601a55600094859055928490559083905582905555565b600080600080600080612b558760405180604001604052806000151515158152602001600015151515815250612106565b600160a060020a038f16600090815260026020526040902054959b50939950919750955093509150612b87908861225c565b600160a060020a038a16600090815260026020908152604080832093909355600190522054612bb6908761225c565b600160a060020a03808b1660009081526001602052604080822093909355908a1681522054612be590866120fa565b600160a060020a038916600090815260016020526040812091909155612c129082905b60200201516130e0565b6020810151612c21908a613169565b6040810151612c30908a61322b565b6060810151612c3f908a6132e2565b612c498483613399565b87600160a060020a031689600160a060020a0316600080516020613a1783398151915285604051612c7c91815260200190565b60405180910390a3505050505050505050565b600080600080600080612cc08760405180604001604052806000151515158152602001600015151515815250612106565b600160a060020a038f16600090815260016020526040902054959b50939950919750955093509150612cf2908761225c565b600160a060020a03808b16600090815260016020908152604080832094909455918b16815260029091522054612d2890846120fa565b600160a060020a038916600090815260026020908152604080832093909355600190522054612be590866120fa565b600080600080600080612d6a8888612106565b955095509550955095509550612dae86600160008d600160a060020a0316600160a060020a031681526020019081526020016000205461225c90919063ffffffff16565b600160a060020a03808c1660009081526001602052604080822093909355908b1681522054612ddd90866120fa565b600160a060020a038a16600090815260016020526040812091909155612e04908290612c08565b6020810151612e13908b613169565b6040810151612e22908b61322b565b6060810151612e31908b6132e2565b612e3b8483613399565b88600160a060020a03168a600160a060020a0316600080516020613a1783398151915285604051612e6e91815260200190565b60405180910390a350505050505050505050565b600080600080600080612eb38760405180604001604052806000151515158152602001600015151515815250612106565b600160a060020a038f16600090815260026020526040902054959b50939950919750955093509150612ee5908861225c565b600160a060020a038a16600090815260026020908152604080832093909355600190522054612f14908761225c565b600160a060020a03808b16600090815260016020908152604080832094909455918b16815260029091522054612f4a90846120fa565b600160a060020a038916600090815260026020908152604080832093909355600190522054612f7990866120fa565b600160a060020a038916600090815260016020526040812091909155612fa0908290612c08565b6020810151612fae906133bd565b6040810151612fbc9061347c565b6060810151612c3f9061353b565b600060115460001415612fdf57506000610c9a565b6011548215612ff657612ff38160026122c5565b90505b61300560646118b186846122c5565b949350505050565b60006013546000141561302257506000919050565b610c9a60646118b1601354856122c590919063ffffffff16565b60006016546000141561305157506000610c9a565b6016548215612ff657612ff360135461307c60115461307c601654605a61225c90919063ffffffff16565b9061225c565b6000601c546000141561309757506000919050565b610c9a60646118b1601c54856122c590919063ffffffff16565b6000601954600014156130c657506000919050565b610c9a60646118b1601954856122c590919063ffffffff16565b60006130ea6120d7565b905060006130f883836122c5565b3060009081526001602052604090205490915061311590826120fa565b3060009081526001602090815260408083209390935560059052205460ff1615613164573060009081526002602052604090205461315390846120fa565b306000908152600260205260409020555b505050565b60006131736120d7565b9050600061318184836122c5565b601854600160a060020a0316600081815260016020526040902054919250906131aa90836120fa565b600160a060020a0382166000908152600160209081526040808320939093556002905220546131d990866120fa565b600160a060020a038281166000908152600260209081526040918290209390935560185490518881529082169291871691600080516020613a1783398151915291015b60405180910390a35050505050565b60006132356120d7565b9050600061324384836122c5565b601e54600160a060020a03166000818152600160205260409020549192509061326c90836120fa565b600160a060020a03821660009081526001602090815260408083209390935560029052205461329b90866120fa565b600160a060020a0382811660009081526002602090815260409182902093909355601e5490518881529082169291871691600080516020613a17833981519152910161321c565b60006132ec6120d7565b905060006132fa84836122c5565b601b54600160a060020a03166000818152600160205260409020549192509061332390836120fa565b600160a060020a03821660009081526001602090815260408083209390935560029052205461335290866120fa565b600160a060020a0382811660009081526002602090815260409182902093909355601b5490518881529082169291871691600080516020613a17833981519152910161321c565b600c546133a6908361225c565b600c55600d546133b690826120fa565b600d555050565b60006133c76120d7565b905060006133d583836122c5565b601854600160a060020a03166000908152600160205260409020549091506133fd90826120fa565b60188054600160a060020a03908116600090815260016020908152604080832095909555925490911681526005909152205460ff161561316457601854600160a060020a031660009081526002602052604090205461345c90846120fa565b601854600160a060020a0316600090815260026020526040902055505050565b60006134866120d7565b9050600061349483836122c5565b601e54600160a060020a03166000908152600160205260409020549091506134bc90826120fa565b601e8054600160a060020a03908116600090815260016020908152604080832095909555925490911681526005909152205460ff161561316457601e54600160a060020a031660009081526002602052604090205461351b90846120fa565b601e54600160a060020a0316600090815260026020526040902055505050565b60006135456120d7565b9050600061355383836122c5565b601b54600160a060020a031660009081526001602052604090205490915061357b90826120fa565b601b8054600160a060020a03908116600090815260016020908152604080832095909555925490911681526005909152205460ff161561316457601b54600160a060020a03166000908152600260205260409020546135da90846120fa565b601b54600160a060020a0316600090815260026020526040902055505050565b60405180608001604052806004906020820280368337509192915050565b8035801515811461362857600080fd5b919050565b60006020828403121561363f57600080fd5b8135610dfa816139d9565b60006020828403121561365c57600080fd5b8151610dfa816139d9565b6000806040838503121561367a57600080fd5b8235613685816139d9565b91506020830135613695816139d9565b809150509250929050565b6000806000606084860312156136b557600080fd5b83356136c0816139d9565b925060208401356136d0816139d9565b929592945050506040919091013590565b600080604083850312156136f457600080fd5b82356136ff816139d9565b915061370d60208401613618565b90509250929050565b6000806040838503121561372957600080fd5b8235613734816139d9565b946020939093013593505050565b60006020828403121561375457600080fd5b610dfa82613618565b60006020828403121561376f57600080fd5b5035919050565b6000806040838503121561378957600080fd5b8235915061370d60208401613618565b6000806000606084860312156137ae57600080fd5b8351925060208401519150604084015190509250925092565b600060208083528351808285015260005b818110156137f4578581018301518582016040015282016137d8565b81811115613806576000604083870101525b50601f01601f1916929092016040019392505050565b6020808252818101527f4f776e61626c653a2063616c6c6572206973206e6f7420746865206f776e6572604082015260600190565b600060a082018783526020878185015260a0604085015281875180845260c086019150828901935060005b818110156138a1578451600160a060020a03168352938301939183019160010161387c565b5050600160a060020a03969096166060850152505050608001529392505050565b600082198211156138d5576138d561398e565b500190565b6000826138fa5760e060020a634e487b7102600052601260045260246000fd5b500490565b60008160001904831182151516156139195761391961398e565b500290565b6000828210156139305761393061398e565b500390565b60028104600182168061394957607f821691505b6020821081141561396d5760e060020a634e487b7102600052602260045260246000fd5b50919050565b60006000198214156139875761398761398e565b5060010190565b60e060020a634e487b7102600052601160045260246000fd5b60e060020a634e487b7102600052603160045260246000fd5b60e060020a634e487b7102600052603260045260246000fd5b600160a060020a038116811461174d57600080fdfe45524332303a207472616e7366657220616d6f756e74206578636565647320616c6c6f77616e6365ddf252ad1be2c89b69c2b068fc378daa952ba7f163c4a11628f55a4df523b3ef45524332303a2064656372656173656420616c6c6f77616e63652062656c6f77207a65726fa26469706673582212201b0e1c7c5040f2fff62febcdb8d941f4c7237275c4b018df4b4576c501deb48f64736f6c63430008070033",
  "immutableReferences": {
    "189": [
      {
        "length": 32,
        "start": 1213
      },
      {
        "length": 32,
        "start": 10258
      },
      {
        "length": 32,
        "start": 10461
      },
      {
        "length": 32,
        "start": 10546
      },
      {
        "length": 32,
        "start": 10668
      },
      {
        "length": 32,
        "start": 10707
      }
    ],
    "191": [
      {
        "length": 32,
        "start": 2210
      },
      {
        "length": 32,
        "start": 7456
      },
      {
        "length": 32,
        "start": 7990
      },
      {
        "length": 32,
        "start": 8235
      }
    ]
  },
  "source": "// SPDX-License-Identifier: GPL-3.0-only\n// Copyleft: The Smart Places Protocol development team!\n// Built with truffle 7.21.0 and lots of love, on August-September 2021\n\npragma solidity ^0.8.7;\n\n/***\n *     _____                      _    ______ _                      ______          _                  _ \n *    /  ___|                    | |   | ___ \\ |                     | ___ \\        | |                | |\n *    \\ `--. _ __ ___   __ _ _ __| |_  | |_/ / | __ _  ___ ___  ___  | |_/ / __ ___ | |_ ___   ___ ___ | |\n *     `--. \\ '_ ` _ \\ / _` | '__| __| |  __/| |/ _` |/ __/ _ \\/ __| |  __/ '__/ _ \\| __/ _ \\ / __/ _ \\| |\n *    /\\__/ / | | | | | (_| | |  | |_  | |   | | (_| | (_|  __/\\__ \\ | |  | | | (_) | || (_) | (_| (_) | |\n *    \\____/|_| |_| |_|\\__,_|_|   \\__| \\_|   |_|\\__,_|\\___\\___||___/ \\_|  |_|  \\___/ \\__\\___/ \\___\\___/|_|\n *                                                                                                        \n *  https://smartplacesprotocol.io\n *  https://t.me //TODO add telegram!\n */\n \n/**\n * Our lib imports. \n * Mostly OpenZeppelin stuff...\n */\nimport \"@openzeppelin/contracts/utils/Address.sol\";\nimport \"@openzeppelin/contracts/access/Ownable.sol\";\nimport \"@openzeppelin/contracts/token/ERC20/IERC20.sol\";\nimport \"@openzeppelin/contracts/utils/math/SafeMath.sol\";\n/* Broke these out to separate files because they're just the Uniswap interfaces. Couldn't find them @referenced somewhere. */\nimport \"./interfaces/IUniswapV2Factory.sol\";\nimport \"./interfaces/IUniswapV2Pair.sol\";\nimport \"./interfaces/IUniswapV2Router.sol\";\n\n/**\n  * The main Smart Places Protocol contract! This is where the magic gets defined~\n  */ \ncontract SmartPlacesProtocol is Context, IERC20, Ownable {\n    using SafeMath for uint256;\n    using Address for address;\n    \n    /* Required for calculating reflections per transfer, a-la-FLOKI */\n    mapping(address => uint256) private _rOwned;\n    mapping(address => uint256) private _tOwned;\n    mapping(address => mapping(address => uint256)) private _allowances;\n\n    mapping(address => bool) private _isExcludedFromFee; //from paying tax when transferring\n    mapping(address => bool) private _isExcluded; //from reflections\n    address[] private _excluded; //LookUp Table (LUT) for iterating through excluded wallets. Remember, mappings aren't suitable for this.\n    \n    mapping(address=>bool) private _isExcludedFromTxLimit; //Adding this for the dxsale/unicrypt presale, the router needs to be exempt from max tx amount limit.\n   \n    string private _name = \"Smart Places Protocol\";\n    string private _symbol = \"SMARTEE\";\n    uint8 private _decimals = 9;\n\n    uint256 private constant MAX = ~uint256(0);\n    uint256 private _tTotal = 30 * 10**9 * 10**_decimals; //30 billion, plus decimals\n    uint256 private _rTotal = (MAX - (MAX % _tTotal));\n    uint256 private _tFeeTotal;\n    \n    bool public antiSniping_failsafe = true;    //Acts as an emergency circuit breaker in case we need to abort the anti-sniping mechanism\n    uint256 public antiSniping_blocks = 3;\n    \n    bool public salePenalizationEnabled = false; //Will double reflections (tax) when a user is selling our token\n\n    uint256 public _taxFee = 0;     //Used to calculate reflections\n    uint256 private _previousTaxFee = _taxFee;\n    //bool public shouldReflect = false;\n\n    uint256 public _liquidityFee = 0;\n    uint256 private _previousLiquidityFee = _liquidityFee;\n    \n    bool inSwapAndLiquify;\n    bool public swapAndLiquifyEnabled = false;\n    \n    uint256 public _marketingFee = 1;\n    uint256 private _previousMarketingFee = _marketingFee;\n    address public _marketingWalletAddress; //Dynamic, has a setter.\n    bool public shouldTakeMarketing = true;\n    \n    uint256 public _charityFee = 1;\n    uint256 private _previousCharityFee = _charityFee;\n    address public _charityAddress; //Dynamic, has a setter.\n    bool public shouldTakeCharity = true;\n    \n    uint256 public _burnFee = 1;\n    uint256 private _previousBurnFee = _burnFee; \n    address public _burnAddress = 0x000000000000000000000000000000000000dEaD;   //Static. No setter.\n    bool public shouldBurn = true;\n    \n    uint256 private launchedAt; //Stores the block.height on which the token received its first pancake liquidity (first transfer towards the pancake pair)\n    bool private manualLaunch = false;\n    \n    IUniswapV2Router02 public immutable uniswapV2Router;    //Pointers to the DEX Router (in our case, Pancake Router v2)\n    address public immutable SmartPlacesUniswapV2Pair;      //and to our own DEX pair, for liquidity operations\n\n    uint256 public _maxTxAmount = _tTotal.div(100); //1% of total supply\n    uint256 private numTokensSellToAddToLiquidity = _maxTxAmount.div(10);   //0.1%\n                                                                            //Should always be at ~1 order of magnitude less than _maxTxAmount.\n    /* Feature request by Bjorn: The ability to turn off fees for user transfers and only tax certain kinds of txes. */                          \n    bool public noFeesBetweenUsersEnabled = false;\n    mapping(address => bool) public _shouldTakeFee;\n    \n    event MinTokensBeforeSwapUpdated(uint256 minTokensBeforeSwap);\n    event SwapAndLiquifyEnabledUpdated(bool enabled);\n    event SwapAndLiquify(\n        uint256 tokensSwapped,\n        uint256 ethReceived,\n        uint256 tokensIntoLiqudity\n    );\n    event AntiSnipingFailsafeSetTo(bool toggle);\n\n    modifier lockTheSwap {\n        inSwapAndLiquify = true;\n        _;\n        inSwapAndLiquify = false;\n    }\n    \n    /* TODO Checklist after deploying the SPP token, and preparation for a smooth presale.\n     * 1. ExcludeFromFee(), ExcludeFromReward() and ExcludeFromTxLimit() on the presaler contract (dxSale or Unicrypt, or the launchpad)\n     * 2. ExcludeFromTXLimit on the dev wallet, goddamnit \n     * 3. ExcludeFromReward() on the Dead address or towards whatever you're burning at. WARNING: If re-enabled, you'll need to run sync() on the pair address.\n     * 3. Disable SwapAndLiquify, otherwise Liquidity injections (e.g. from the presaler contract to the Pancake pair) fail.\n     *      If you want to control that, check the circular-liquidity-avoidance code in SwapAndLiquefy().\n     * 4. Re-enable all this as soon as humanly possible, even though the anti-sniping mechanism can buy you some time.\n     *      removeAllFee() and restoreAllFee() can help here, but consider keeping them private instead of public/external.\n     */\n    constructor(address param_addr, address char_addr) {\n        _rOwned[_msgSender()] = _rTotal;\n\n        IUniswapV2Router02 _uniswapV2Router = IUniswapV2Router02(0x10ED43C718714eb63d5aA57B78B54704E256024E); //PancakeSwap's V2 Router (Mainnet)\n                                                                                                                //NOTE: You HAVE to use Pancake's V2 Router, otherwise taxOnTransfer don't work.\n        //IUniswapV2Router02 _uniswapV2Router = IUniswapV2Router02(0x9Ac64Cc6e4415144C455BD8E4837Fea55603e5c3);   //Pancakeswap testnet (from https://bsc.kiemtienonline360.com/)\n        //Create a new uniswap pair for this new token and set the local pair pointer\n        SmartPlacesUniswapV2Pair = IUniswapV2Factory(_uniswapV2Router.factory()).createPair(address(this), _uniswapV2Router.WETH());\n\n        //Set the local router pointer\n        uniswapV2Router = _uniswapV2Router;\n\n        //Exclude owner and this contract from fee (tax)\n        _isExcludedFromFee[owner()] = true;\n        _isExcludedFromFee[address(this)] = true;\n        _marketingWalletAddress = param_addr;\n        _charityAddress = char_addr;\n        //setMultisigOwnership(opt_multiSig);\n        \n        _isExcluded[_burnAddress] = true;   //WORKSPACE\n        _excluded.push(_burnAddress);\n\n        emit Transfer(address(0), _msgSender(), _tTotal);\n    }\n\n    function name() public view returns (string memory) {\n        return _name;\n    }\n\n    function symbol() public view returns (string memory) {\n        return _symbol;\n    }\n\n    function decimals() public view returns (uint8) {\n        return _decimals;\n    }\n\n    function totalSupply() public view override returns (uint256) {\n        return _tTotal;\n    }\n    \n    //Added in SmartPlaces v0.2: This only called once, during the first ever liquidity injection transfer, and marks the block.height in which it happened.\n    function launch() internal {\n        launchedAt = block.number;\n    }\n    \n    //and a linked getter to check whether SPP is launched or not.\n    function launched() internal view returns (bool) {\n        return launchedAt != 0;\n    }\n    \n    //Added in SmartPlaces v0.2: This is a manual override for setting the launchedAt variable. Causes the first transfer of tokens to and from anyone to set the launchedAt variable.\n    function manualLaunchOverride(bool toggle) public onlyOwner {\n        manualLaunch = toggle;\n    }\n    \n    function setAntiSnipeFailsafe(bool failsafe) public {\n        antiSniping_failsafe = failsafe;\n        emit AntiSnipingFailsafeSetTo(failsafe);\n    }\n\n    function balanceOf(address account) public view override returns (uint256) {\n        if (_isExcluded[account]) return _tOwned[account];\n        return tokenFromReflection(_rOwned[account]);\n    }\n\n    function transfer(address recipient, uint256 amount) public override returns (bool) {\n        _transfer(_msgSender(), recipient, amount);\n        return true;\n    }\n\n    function allowance(address owner, address spender) public view override returns (uint256) {\n        return _allowances[owner][spender];\n    }\n\n    function approve(address spender, uint256 amount) public override returns (bool) {\n        _approve(_msgSender(), spender, amount);\n        return true;\n    }\n\n    function transferFrom(address sender, address recipient, uint256 amount) public override returns (bool) {\n        _transfer(sender, recipient, amount);\n        _approve(\n            sender,\n            _msgSender(),\n            _allowances[sender][_msgSender()].sub(\n                amount,\n                \"ERC20: transfer amount exceeds allowance\"\n            )\n        );\n        return true;\n    }\n\n    function increaseAllowance(address spender, uint256 addedValue) public virtual returns (bool) {\n        _approve(\n            _msgSender(),\n            spender,\n            _allowances[_msgSender()][spender].add(addedValue)\n        );\n        return true;\n    }\n\n    function decreaseAllowance(address spender, uint256 subtractedValue) public virtual returns (bool) {\n        _approve(\n            _msgSender(),\n            spender,\n            _allowances[_msgSender()][spender].sub(\n                subtractedValue,\n                \"ERC20: decreased allowance below zero\"\n            )\n        );\n        return true;\n    }\n\n    function isExcludedFromReward(address account) public view returns (bool) {\n        return _isExcluded[account];\n    }\n\n    function totalFees() public view returns (uint256) {\n        return _tFeeTotal;\n    }\n\n    function deliver(uint256 tAmount) public {\n        address sender = _msgSender();\n        require(!_isExcluded[sender], \"Excluded addresses cannot call this function\");\n        (uint256 rAmount, , , , , ) = _getValues(tAmount, [false, false]); //Commas mean we don't care about those return values in the tuple.\n        \n        _rOwned[sender] = _rOwned[sender].sub(rAmount);\n        _rTotal = _rTotal.sub(rAmount);\n        _tFeeTotal = _tFeeTotal.add(tAmount);\n    }\n\n    function reflectionFromToken(uint256 tAmount, bool deductTransferFee) public view returns (uint256)\n    {\n        require(tAmount <= _tTotal, \"Amount must be less than supply\");\n        if (!deductTransferFee) {\n            (uint256 rAmount, , , , , ) = _getValues(tAmount, [false, false]);\n            \n            return rAmount;\n        } else {\n            (, uint256 rTransferAmount, , , , ) = _getValues(tAmount, [false, false]);\n            \n            return rTransferAmount;\n        }\n    }\n\n    function tokenFromReflection(uint256 rAmount) public view returns (uint256)\n    {\n        require(rAmount <= _rTotal, \"TokensFromReflection: Amount must be less than total reflections\");\n        uint256 currentRate = _getRate();\n        return rAmount.div(currentRate);\n    }\n\n    function excludeFromReward(address account) public onlyOwner() {\n        require(!_isExcluded[account], \"ExcludeFromReward: Account already excluded\");\n        if (_rOwned[account] > 0) {\n            _tOwned[account] = tokenFromReflection(_rOwned[account]);\n        }\n        _isExcluded[account] = true;\n        _excluded.push(account);\n    }\n\n    function includeInReward(address account) external onlyOwner() {\n        require(_isExcluded[account], \"Account is already included\");\n        for (uint256 i = 0; i < _excluded.length; i++) {\n            if (_excluded[i] == account) {\n                _excluded[i] = _excluded[_excluded.length - 1];\n                _tOwned[account] = 0;\n                _isExcluded[account] = false;\n                _excluded.pop();\n                break;\n            }\n        }\n    }\n    \n    //Adding this for SmartPlaces v0.2, for use either internally or externally, so the ILO contract can be set to be tx limit exempt.\n    function setIsExcludedFromTXLimit(address account, bool isExcluded) public onlyOwner {\n        _isExcludedFromTxLimit[account] = isExcluded;\n    }\n    \n    function isExcludedFromTXLimit(address account) public view returns (bool) {\n        return _isExcludedFromTxLimit[account];\n    }\n    \n    function excludeFromFee(address account) public onlyOwner {\n        _isExcludedFromFee[account] = true;\n    }\n\n    function includeInFee(address account) public onlyOwner {\n        _isExcludedFromFee[account] = false;\n    }\n    \n    /* TODO: Combine all these functions together. */\n    function setTaxFeePercent(uint256 taxFee) external onlyOwner() {\n        _taxFee = taxFee;\n    }\n\n    function setMarketingFeePercent(uint256 marketingFee) external onlyOwner() {\n        if(marketingFee <= 0){\n            shouldTakeMarketing = false;\n        }\n        else {\n            shouldTakeMarketing = true;\n        }\n        _marketingFee = marketingFee;\n    }\n    \n    function setLiquidityFeePercent(uint256 liquidityFee) external onlyOwner() {\n        _liquidityFee = liquidityFee;\n    }\n    \n    function setCharityFeePercent(uint256 charFee) external onlyOwner() {\n        _charityFee = charFee;\n        if(_charityFee <= 0){\n            shouldTakeCharity = false;\n        }\n        else {\n            shouldTakeCharity = true;\n        }\n    }\n    \n    function setBurnFeePercent(uint256 burnFee) external onlyOwner() {\n        _burnFee = burnFee;\n        if(burnFee <= 0){\n            shouldBurn = false;\n        }\n        else {\n            shouldBurn = true;\n        }\n    }\n\n    function setMaxTxPercent(uint256 maxTxPercent) external onlyOwner() {\n        _maxTxAmount = _tTotal.mul(maxTxPercent).div(100*10**2);\n    }\n\n    function setSwapAndLiquifyEnabled(bool toggle) public onlyOwner {\n        swapAndLiquifyEnabled = toggle;\n        emit SwapAndLiquifyEnabledUpdated(toggle);\n    }\n    \n    function setAntiSnipingBlocks(uint256 blocks) public onlyOwner {\n        antiSniping_blocks = blocks;\n    }\n    \n    function setSalePenalizationEnabled(bool toggle) public onlyOwner {\n        salePenalizationEnabled = toggle;\n    }\n\n    //to recieve ETH from uniswapV2Router when swaping\n    receive() external payable {}\n\n    function _reflectFee(uint256 rFee, uint256 tFee) private {\n        _rTotal = _rTotal.sub(rFee);\n        _tFeeTotal = _tFeeTotal.add(tFee);\n    }\n    \n    struct tVector {\n        uint256 tTransferAmount;\n        uint256 tFee;\n        uint256 tLiquidity;\n        uint256 tMarketing;\n        uint256 tBurn;\n        uint256 tCharity;\n    }\n    \n    struct rVector {\n        uint256 rAmount;\n        uint256 rTransferAmount;\n        uint256 rFee;\n    }\n    \n    //Had to use structs as the stack gets too deep if we leave it like it was. Remember, only around ~16 local variables are ever allowed in the stack, params and return types included.\n    //The { }s are there for scoping, and killing unneeded vars.\n    function _getValues(uint256 tAmount, bool[2] memory isSale_isSniper) private view returns (uint256, uint256, uint256, uint256, uint256, uint256[4] memory) {\n        tVector memory my_tVector;\n        rVector memory my_rVector;\n        {\n            //(uint256 tTransferAmount, uint256 tFee, uint256 tLiquidity, uint256 tMarketing, uint256 tBurn) = _getTValues(tAmount, isSale_isSniper);\n            (uint256 tTransferAmount, uint256 tFee, uint256[4] memory allFees) = _getTValues(tAmount, isSale_isSniper);\n            // The allFees array contains: pos_0: tLiquidity, pos_1: tMarketing, Pos_2: tBurn, Pos_3: tCharity if enabled.\n            my_tVector.tTransferAmount = tTransferAmount;\n            my_tVector.tFee = tFee;\n            my_tVector.tLiquidity = allFees[0];\n            my_tVector.tMarketing = allFees[1];\n            my_tVector.tBurn = allFees[2];           //WORKSPACE BETA\n            my_tVector.tCharity = allFees[3];\n        }\n        {\n            (uint256 rAmount, uint256 rTransferAmount, uint256 rFee) = _getRValues(tAmount, my_tVector.tFee, my_tVector.tLiquidity, my_tVector.tMarketing, _getRate());\n            my_rVector.rAmount = rAmount;\n            my_rVector.rTransferAmount = rTransferAmount;\n            my_rVector.rFee = rFee;\n        }\n        return (my_rVector.rAmount, my_rVector.rTransferAmount, my_rVector.rFee, my_tVector.tTransferAmount, my_tVector.tFee,\n                [my_tVector.tLiquidity, my_tVector.tMarketing, my_tVector.tBurn, my_tVector.tCharity]); //total returned values: 6: 5 uint256s + 1 uint256[]\n    }\n    \n    function _getTValues(uint256 tAmount, bool[2] memory isSale_isSniper) private view returns (uint256, uint256, uint256[4] memory) { //Contains 3 values!\n        uint256 tFee = calculateTaxFee(tAmount, isSale_isSniper[0]);\n        uint256 tLiquidity = calculateLiquidityFee(tAmount);\n        uint256 tMarketing = calculateMarketingFee(tAmount, isSale_isSniper[1]);\n        uint256 tBurn = calculateBurnFee(tAmount);\n        uint256 tCharity = calculateCharityFee(tAmount);\n        uint256 tTransferAmount = tAmount.sub(tFee);\n        tTransferAmount = tTransferAmount.sub(tLiquidity);\n        tTransferAmount = tTransferAmount.sub(tMarketing);\n        tTransferAmount = tTransferAmount.sub(tBurn);\n        tTransferAmount = tTransferAmount.sub(tCharity);\n        return (tTransferAmount, tFee, [tLiquidity, tMarketing, tBurn, tCharity]);\n    }\n    \n    function _getRValues(uint256 tAmount, uint256 tFee, uint256 tLiquidity, uint256 tMarketing, uint256 currentRate) private pure returns (uint256, uint256, uint256) {\n        uint256 rAmount = tAmount.mul(currentRate);\n        uint256 rTransferAmount;\n        uint256 rFee;\n        {\n            rFee = tFee.mul(currentRate);\n            uint256 rLiquidity = tLiquidity.mul(currentRate);\n            uint256 rMarketing = tMarketing.mul(currentRate);\n            rTransferAmount = rAmount.sub(rFee);\n            rTransferAmount = rTransferAmount.sub(rLiquidity);\n            rTransferAmount = rTransferAmount.sub(rMarketing);\n        }\n        return (rAmount, rTransferAmount, rFee);\n    }\n\n    function _getRate() private view returns (uint256) {\n        (uint256 rSupply, uint256 tSupply) = _getCurrentSupply();\n        return rSupply.div(tSupply);\n    }\n\n    function _getCurrentSupply() private view returns (uint256, uint256) {\n        uint256 rSupply = _rTotal;\n        uint256 tSupply = _tTotal;\n        for (uint256 i = 0; i < _excluded.length; i++) {\n            if (\n                _rOwned[_excluded[i]] > rSupply ||\n                _tOwned[_excluded[i]] > tSupply\n            ) return (_rTotal, _tTotal);\n            rSupply = rSupply.sub(_rOwned[_excluded[i]]);\n            tSupply = tSupply.sub(_tOwned[_excluded[i]]);\n        }\n        if (rSupply < _rTotal.div(_tTotal)) return (_rTotal, _tTotal);\n        return (rSupply, tSupply);\n    }\n    \n    function calculateTaxFee(uint256 _amount, bool isSale) private view returns (uint256) {\n        if(_taxFee == 0) { return 0; }\n        uint256 this_taxFee = _taxFee;\n        if(isSale){\n            this_taxFee = this_taxFee.mul(2);\n        }\n        return _amount.mul(this_taxFee).div(100);\n    }\n\n    function calculateLiquidityFee(uint256 _amount) private view returns (uint256) {\n        if(_liquidityFee == 0) { return 0; }\n        return _amount.mul(_liquidityFee).div(100);\n    }\n    \n    function calculateMarketingFee(uint256 _amount, bool isSniper) private view returns (uint256) {\n        if(_marketingFee == 0) { return 0; }\n        uint256 this_marketingFee = _marketingFee;\n        if(isSniper){\n            this_marketingFee = uint256(90).sub(_marketingFee).sub(_taxFee).sub(_liquidityFee);\n        }\n        return _amount.mul(this_marketingFee).div(100);\n    }\n    \n    function calculateBurnFee(uint256 _amount) private view returns (uint256) {\n        if(_burnFee == 0) { return 0; }\n        return _amount.mul(_burnFee).div(100);\n    }\n    \n    function calculateCharityFee(uint256 _amount) private view returns (uint256) {\n        if(_charityFee == 0) { return 0; }\n        return _amount.mul(_charityFee).div(100);\n    }\n    \n    /* TODO: Combine all these functions together. */\n    function setMarketingAddress(address addr) external onlyOwner() {\n\t\t_marketingWalletAddress = addr;\n    }\n    \n    function setCharityAddress(address addr) external onlyOwner() {\n\t\t_charityAddress = addr;\n    }\n    \n    function removeAllFee() private {\n        if(_taxFee == 0 && _liquidityFee == 0 && _marketingFee == 0 && _charityFee == 0 && _burnFee == 0) return;\n        \n        _previousTaxFee = _taxFee;\n        _previousMarketingFee = _marketingFee;\n        _previousLiquidityFee = _liquidityFee;\n        _previousBurnFee = _burnFee;\n        _previousCharityFee = _charityFee;\n        \n        _taxFee = 0;\n        _marketingFee = 0;\n        _liquidityFee = 0;\n        _burnFee = 0;\n        _charityFee = 0;\n    }\n    \n    function restoreAllFee() private {\n        _taxFee = _previousTaxFee;\n        _marketingFee = _previousMarketingFee;\n        _liquidityFee = _previousLiquidityFee;\n        _burnFee = _previousBurnFee;\n        _charityFee = _previousCharityFee;\n    }\n\n    function isExcludedFromFee(address account) public view returns (bool) {\n        return _isExcludedFromFee[account];\n    }\n\n    function _approve(\n        address owner,\n        address spender,\n        uint256 amount\n    ) private {\n        require(owner != address(0), \"ERC20: approve from the zero address\");\n        require(spender != address(0), \"ERC20: approve to the zero address\");\n\n        _allowances[owner][spender] = amount;\n        emit Approval(owner, spender, amount);\n    }\n    \n    //MARKER: This is our bread and butter.\n    function _transfer(address from, address to, uint256 amount\n    ) private {\n        require(from != address(0), \"ERC20: transfer from the zero address\");\n        require(to != address(0), \"ERC20: transfer to the zero address\");\n        require(amount > 0, \"Transfer amount must be greater than zero\");\n        \n        /* Added in SmartPlaces v0.2 - this block is only used once, and marks the launch of the token! */\n        if(!launched() && to == SmartPlacesUniswapV2Pair || manualLaunch){ \n            require(balanceOf(from) > 0, \"SMARTPLACES: Are you trying to launch without actually having tokens?\");\n            launch();\n        }\n        \n        // Fixed in SmartPlaces v0.2. This requires a && or XOR condition, otherwise it imposed maxTxLimit on anyone but the owner() address.\n        if( (from != owner() && to != owner()) && !(_isExcludedFromTxLimit[from]) ) {\n            require(amount <= _maxTxAmount, \"SMARTPLACES: Transfer amount exceeds maxTxAmount.\");\n        }\n\n        // is the token balance of this contract address over the min number of\n        // tokens that we need to initiate a swap + liquidity lock?\n        // also, don't get caught in a circular liquidity event.\n        // also, don't swap & liquify if sender is uniswap pair.\n        uint256 contractTokenBalance = balanceOf(address(this));\n        //MARKER: The contract is just putting everything to liquidity once it has it. Gotta intercept it somehow.\n        if(contractTokenBalance >= _maxTxAmount) {\n            contractTokenBalance = _maxTxAmount;\n        }\n        \n        //Should we add liquidity or not? Are we over the minimum amount?\n        bool overMinTokenBalance = (contractTokenBalance >= numTokensSellToAddToLiquidity);\n        if(swapAndLiquifyEnabled && overMinTokenBalance && !inSwapAndLiquify && from != SmartPlacesUniswapV2Pair) { //Jesus, that's a lot of conditions\n            contractTokenBalance = numTokensSellToAddToLiquidity;\n            //Add liquidity!\n            swapAndLiquify(contractTokenBalance);\n        }\n\n        //indicates if fee should be deducted from transfer\n        bool takeFees = true;\n        //if any account belongs to _isExcludedFromFee account then we don't deduct any\n        if (_isExcludedFromFee[from] || _isExcludedFromFee[to] || (noFeesBetweenUsersEnabled && !_shouldTakeFee[from]) ) {  //TODO: shouldTakeFee is headless.\n            takeFees = false;\n        }\n        \n        /* Added in SmartPlaces v0.2 - we raise taxation for the first 4 blocks after the launch, to penalize bots+snipers playing gas wars.\n         * No human can get to pancakeswap within 9 seconds of the first liquidity being added to the pair.\n         * If isSniper equals true, taxation is raised to 99.999%\n         */\n        bool isSniper = false;\n        if(antiSniping_failsafe && launchedAt + antiSniping_blocks >= block.number){\n        //Looks like we have a sniper here, boys.\n            isSniper = true;\n        }\n        \n        bool isSale = false;\n        //TODO: Continue building this and confirm with other devs\n        //A sale is when? When the recipient is the router, or the pair address?\n        if(to == SmartPlacesUniswapV2Pair && salePenalizationEnabled){ //It's a sell, boys!\n            isSale = true;\n        }\n\n        //transfer amount, it will take tax, marketing, liquidity fee.\n        _tokenTransfer(from, to, amount, takeFees, [isSale, isSniper]);\n    }\n\n    //this method is responsible for subtracting all fees, if takeFee is true\n    function _tokenTransfer(address sender, address recipient, uint256 amount, bool takeFee, bool[2] memory isSale_isSniper) private {\n        if (!takeFee) removeAllFee(); //Toggle fees off for now\n\n        if (_isExcluded[sender] && !_isExcluded[recipient]) {\n            _transferFromExcluded(sender, recipient, amount);\n        } else if (!_isExcluded[sender] && _isExcluded[recipient]) {\n            _transferToExcluded(sender, recipient, amount);\n        } else if (!_isExcluded[sender] && !_isExcluded[recipient]) {\n            _transferStandard(sender, recipient, amount, isSale_isSniper);\n        } else if (_isExcluded[sender] && _isExcluded[recipient]) {\n            _transferBothExcluded(sender, recipient, amount);\n        } else {    //Failsafe, just in case\n            _transferStandard(sender, recipient, amount, isSale_isSniper);\n        }\n\n        if (!takeFee) restoreAllFee(); //Toggle it back\n    }\n\n    function _transferStandard(address sender, address recipient, uint256 tAmount, bool[2] memory isSale_isSniper) private {\n        (\n         uint256 rAmount,\n         uint256 rTransferAmount,\n         uint256 rFee,\n         uint256 tTransferAmount,\n         uint256 tFee,\n         uint256[4] memory tTaxes //Contains: [tLiqudity, tMarketing, tBurn, tCharity]\n        ) = _getValues(tAmount, isSale_isSniper);\n        \n        _rOwned[sender] = _rOwned[sender].sub(rAmount);\n        _rOwned[recipient] = _rOwned[recipient].add(rTransferAmount);\n        _takeLiquidity(tTaxes[0]);\n        _sendToMarketing(tTaxes[1], sender);\n        _sendToBurn(tTaxes[2], sender);\n        _sendToCharity(tTaxes[3], sender);\n        _reflectFee(rFee, tFee);\n        \n        emit Transfer(sender, recipient, tTransferAmount);\n    }\n\n    function _transferToExcluded(address sender, address recipient, uint256 tAmount) private {\n        (\n            uint256 rAmount,\n            uint256 rTransferAmount,\n            uint256 rFee,\n            uint256 tTransferAmount,\n            uint256 tFee,\n            uint256[4] memory tTaxes //Contains: [tLiqudity, tMarketing, tBurn, tCharity]\n        ) = _getValues(tAmount, [false, false]);\n        \n        _rOwned[sender] = _rOwned[sender].sub(rAmount);\n        _tOwned[recipient] = _tOwned[recipient].add(tTransferAmount);\n        _rOwned[recipient] = _rOwned[recipient].add(rTransferAmount);\n        _takeLiquidity(tTaxes[0]);\n        _sendToMarketing(tTaxes[1], sender);\n        _sendToBurn(tTaxes[2], sender);\n        _sendToCharity(tTaxes[3], sender);\n        _reflectFee(rFee, tFee);\n        emit Transfer(sender, recipient, tTransferAmount);\n    }\n\n    function _transferFromExcluded(address sender, address recipient, uint256 tAmount) private {\n        (\n            uint256 rAmount,\n            uint256 rTransferAmount,\n            uint256 rFee,\n            uint256 tTransferAmount,\n            uint256 tFee,\n            uint256[4] memory tTaxes //Contains: [tLiqudity, tMarketing, tBurn, tCharity]\n        ) = _getValues(tAmount, [false, false]);\n    \n        _tOwned[sender] = _tOwned[sender].sub(tAmount);\n        _rOwned[sender] = _rOwned[sender].sub(rAmount);\n        _rOwned[recipient] = _rOwned[recipient].add(rTransferAmount);\n        _takeLiquidity(tTaxes[0]);\n        _sendToMarketing(tTaxes[1], sender);\n        _sendToBurn(tTaxes[2], sender);\n        _sendToCharity(tTaxes[3], sender);\n        _reflectFee(rFee, tFee);\n        emit Transfer(sender, recipient, tTransferAmount);\n    }\n    \n    function _transferBothExcluded(address sender, address recipient, uint256 tAmount) private {\n        (\n            uint256 rAmount,\n            uint256 rTransferAmount,\n            uint256 rFee,\n            uint256 tTransferAmount,\n            uint256 tFee,\n            uint256[4] memory tTaxes //Contains: [tLiqudity, tMarketing, tBurn, tCharity]\n        ) = _getValues(tAmount, [false, false]); //[isSale, isSniper].\n        \n        _tOwned[sender] = _tOwned[sender].sub(tAmount);\n        _rOwned[sender] = _rOwned[sender].sub(rAmount);\n        _tOwned[recipient] = _tOwned[recipient].add(tTransferAmount);\n        _rOwned[recipient] = _rOwned[recipient].add(rTransferAmount);\n        _takeLiquidity(tTaxes[0]);\n        _takeMarketing(tTaxes[1]);\n        _takeBurn(tTaxes[2]);\n        _takeCharity(tTaxes[3]);\n        _reflectFee(rFee, tFee);\n        emit Transfer(sender, recipient, tTransferAmount);\n    }\n    \n    function _sendToMarketing(uint256 tMarketing, address sender) private {\n        uint256 currentRate = _getRate();\n        uint256 rMarketing = tMarketing.mul(currentRate);\n        address currentMarketing = _marketingWalletAddress;\n        _rOwned[currentMarketing] = _rOwned[currentMarketing].add(rMarketing);\n        _tOwned[currentMarketing] = _tOwned[currentMarketing].add(tMarketing);\n        emit Transfer(sender, _marketingWalletAddress, tMarketing);\n    }\n    \n    function _sendToBurn(uint256 tBurn, address sender) private {  //WORKSPACE\n        uint256 currentRate = _getRate();\n        uint256 rBurn = tBurn.mul(currentRate);\n        address currentBurn = _burnAddress;\n        _rOwned[currentBurn] = _rOwned[currentBurn].add(rBurn);\n        _tOwned[currentBurn] = _tOwned[currentBurn].add(tBurn);\n        emit Transfer(sender, _burnAddress, tBurn);\n    }\n    \n    function _sendToCharity(uint256 tCharity, address sender) private {\n        uint256 currentRate = _getRate();\n        uint256 rCharity = tCharity.mul(currentRate);\n        address currentCharity = _charityAddress;\n        _rOwned[currentCharity] = _rOwned[currentCharity].add(rCharity);\n        _tOwned[currentCharity] = _tOwned[currentCharity].add(tCharity);\n        emit Transfer(sender, _charityAddress, tCharity);\n    }\n    \n    function _takeLiquidity(uint256 tLiquidity) private {\n        uint256 currentRate = _getRate();\n        uint256 rLiquidity = tLiquidity.mul(currentRate);\n        _rOwned[address(this)] = _rOwned[address(this)].add(rLiquidity);\n        if (_isExcluded[address(this)])\n            _tOwned[address(this)] = _tOwned[address(this)].add(tLiquidity);\n    }\n    \n    function _takeMarketing(uint256 tMarketing) private {\n        uint256 currentRate =  _getRate();\n        uint256 rMarketing = tMarketing.mul(currentRate);\n        _rOwned[_marketingWalletAddress] = _rOwned[_marketingWalletAddress].add(rMarketing);\n        if(_isExcluded[_marketingWalletAddress])\n            _tOwned[_marketingWalletAddress] = _tOwned[_marketingWalletAddress].add(tMarketing);\n    }\n    \n    function _takeBurn(uint256 tBurn) private {\n        uint256 currentRate =  _getRate();\n        uint256 rBurn = tBurn.mul(currentRate);\n        _rOwned[_burnAddress] = _rOwned[_burnAddress].add(rBurn);\n        if(_isExcluded[_burnAddress])\n            _tOwned[_burnAddress] = _tOwned[_burnAddress].add(tBurn);\n    }\n    \n    function _takeCharity(uint256 tCharity) private {\n        uint256 currentRate =  _getRate();\n        uint256 rCharity = tCharity.mul(currentRate);\n        _rOwned[_charityAddress] = _rOwned[_charityAddress].add(rCharity);\n        if(_isExcluded[_charityAddress])\n            _tOwned[_charityAddress] = _tOwned[_charityAddress].add(tCharity);\n    }\n    \n    function swapAndLiquify(uint256 contractTokenBalance) private lockTheSwap {\n        // split the contract balance into 2 halves\n        uint256 half = contractTokenBalance.div(2);\n        uint256 otherHalf = contractTokenBalance.sub(half);\n\n        // capture the contract's current ETH balance.\n        // this is so that we can capture exactly the amount of ETH that the\n        // swap creates, and not make the liquidity event include any ETH that\n        // has been manually sent to the contract\n        uint256 initialBalance = address(this).balance;\n\n        // swap tokens for ETH\n        swapTokensForEth(half); // <- this breaks the ETH -> HATE swap when swap+liquify is triggered\n\n        // how much ETH did we just swap into?\n        uint256 newBalance = address(this).balance.sub(initialBalance);\n\n        // add liquidity to uniswap\n        addLiquidity(otherHalf, newBalance);\n        \n        emit SwapAndLiquify(half, newBalance, otherHalf);\n    }\n\n    function swapTokensForEth(uint256 tokenAmount) private {\n        // generate the uniswap pair path of token -> weth\n        address[] memory path = new address[](2);\n        path[0] = address(this);\n        path[1] = uniswapV2Router.WETH();\n\n        _approve(address(this), address(uniswapV2Router), tokenAmount);\n\n        // make the swap\n        uniswapV2Router.swapExactTokensForETHSupportingFeeOnTransferTokens(\n            tokenAmount,\n            0, // accept any amount of ETH\n            path,\n            address(this),\n            block.timestamp\n        );\n    }\n\n    function addLiquidity(uint256 tokenAmount, uint256 ethAmount) private {\n        // approve token transfer to cover all possible scenarios\n        _approve(address(this), address(uniswapV2Router), tokenAmount);\n\n        // add the liquidity\n        uniswapV2Router.addLiquidityETH{value: ethAmount}(\n            address(this),\n            tokenAmount,\n            0, // slippage is unavoidable\n            0, // slippage is unavoidable\n            owner(),\n            block.timestamp\n        );\n    }\n    \n    function setShouldTakeFeeCandidate(address target_address, bool toggle) public onlyOwner() {\n       _shouldTakeFee[target_address] = toggle;\n    }\n    \n    function setNoFeesBetweenUsersEnabled(bool enabled) public onlyOwner() {\n        noFeesBetweenUsersEnabled = enabled;\n    }\n}\n",
  "sourcePath": "/home/dimitris/Documents/Code/SmartPlacesProtocol/SmartPlacesProtocol/contracts/SmartPlacesProtocol.sol",
  "compiler": {
    "name": "solc",
    "version": "0.8.7+commit.e28d00a7.Emscripten.clang"
  },
  "schemaVersion": "3.4.1",
  "updatedAt": "2021-09-11T21:13:41.283Z",
  "devdoc": {
    "kind": "dev",
    "methods": {
      "allowance(address,address)": {
        "details": "Returns the remaining number of tokens that `spender` will be allowed to spend on behalf of `owner` through {transferFrom}. This is zero by default. This value changes when {approve} or {transferFrom} are called."
      },
      "approve(address,uint256)": {
        "details": "Sets `amount` as the allowance of `spender` over the caller's tokens. Returns a boolean value indicating whether the operation succeeded. IMPORTANT: Beware that changing an allowance with this method brings the risk that someone may use both the old and the new allowance by unfortunate transaction ordering. One possible solution to mitigate this race condition is to first reduce the spender's allowance to 0 and set the desired value afterwards: https://github.com/ethereum/EIPs/issues/20#issuecomment-263524729 Emits an {Approval} event."
      },
      "balanceOf(address)": {
        "details": "Returns the amount of tokens owned by `account`."
      },
      "owner()": {
        "details": "Returns the address of the current owner."
      },
      "renounceOwnership()": {
        "details": "Leaves the contract without owner. It will not be possible to call `onlyOwner` functions anymore. Can only be called by the current owner. NOTE: Renouncing ownership will leave the contract without an owner, thereby removing any functionality that is only available to the owner."
      },
      "totalSupply()": {
        "details": "Returns the amount of tokens in existence."
      },
      "transfer(address,uint256)": {
        "details": "Moves `amount` tokens from the caller's account to `recipient`. Returns a boolean value indicating whether the operation succeeded. Emits a {Transfer} event."
      },
      "transferFrom(address,address,uint256)": {
        "details": "Moves `amount` tokens from `sender` to `recipient` using the allowance mechanism. `amount` is then deducted from the caller's allowance. Returns a boolean value indicating whether the operation succeeded. Emits a {Transfer} event."
      },
      "transferOwnership(address)": {
        "details": "Transfers ownership of the contract to a new account (`newOwner`). Can only be called by the current owner."
      }
    },
    "version": 1
  },
  "userdoc": {
    "kind": "user",
    "methods": {},
    "notice": "The main Smart Places Protocol contract! This is where the magic gets defined~",
    "version": 1
  }
}