{
  "contractName": "SmartPlacesProtocol",
  "abi": [
    {
      "inputs": [
        {
          "internalType": "address",
          "name": "param_addr",
          "type": "address"
        }
      ],
      "stateMutability": "nonpayable",
      "type": "constructor"
    },
    {
      "anonymous": false,
      "inputs": [
        {
          "indexed": false,
          "internalType": "bool",
          "name": "toggle",
          "type": "bool"
        }
      ],
      "name": "AntiSnipingFailsafeSetTo",
      "type": "event"
    },
    {
      "anonymous": false,
      "inputs": [
        {
          "indexed": true,
          "internalType": "address",
          "name": "owner",
          "type": "address"
        },
        {
          "indexed": true,
          "internalType": "address",
          "name": "spender",
          "type": "address"
        },
        {
          "indexed": false,
          "internalType": "uint256",
          "name": "value",
          "type": "uint256"
        }
      ],
      "name": "Approval",
      "type": "event"
    },
    {
      "anonymous": false,
      "inputs": [
        {
          "indexed": false,
          "internalType": "uint256",
          "name": "minTokensBeforeSwap",
          "type": "uint256"
        }
      ],
      "name": "MinTokensBeforeSwapUpdated",
      "type": "event"
    },
    {
      "anonymous": false,
      "inputs": [
        {
          "indexed": true,
          "internalType": "address",
          "name": "previousOwner",
          "type": "address"
        },
        {
          "indexed": true,
          "internalType": "address",
          "name": "newOwner",
          "type": "address"
        }
      ],
      "name": "OwnershipTransferred",
      "type": "event"
    },
    {
      "anonymous": false,
      "inputs": [
        {
          "indexed": false,
          "internalType": "uint256",
          "name": "tokensSwapped",
          "type": "uint256"
        },
        {
          "indexed": false,
          "internalType": "uint256",
          "name": "ethReceived",
          "type": "uint256"
        },
        {
          "indexed": false,
          "internalType": "uint256",
          "name": "tokensIntoLiqudity",
          "type": "uint256"
        }
      ],
      "name": "SwapAndLiquify",
      "type": "event"
    },
    {
      "anonymous": false,
      "inputs": [
        {
          "indexed": false,
          "internalType": "bool",
          "name": "enabled",
          "type": "bool"
        }
      ],
      "name": "SwapAndLiquifyEnabledUpdated",
      "type": "event"
    },
    {
      "anonymous": false,
      "inputs": [
        {
          "indexed": true,
          "internalType": "address",
          "name": "from",
          "type": "address"
        },
        {
          "indexed": true,
          "internalType": "address",
          "name": "to",
          "type": "address"
        },
        {
          "indexed": false,
          "internalType": "uint256",
          "name": "value",
          "type": "uint256"
        }
      ],
      "name": "Transfer",
      "type": "event"
    },
    {
      "inputs": [],
      "name": "SmartPlacesUniswapV2Pair",
      "outputs": [
        {
          "internalType": "address",
          "name": "",
          "type": "address"
        }
      ],
      "stateMutability": "view",
      "type": "function"
    },
    {
      "inputs": [],
      "name": "_burnAddress",
      "outputs": [
        {
          "internalType": "address",
          "name": "",
          "type": "address"
        }
      ],
      "stateMutability": "view",
      "type": "function"
    },
    {
      "inputs": [],
      "name": "_burnFee",
      "outputs": [
        {
          "internalType": "uint256",
          "name": "",
          "type": "uint256"
        }
      ],
      "stateMutability": "view",
      "type": "function"
    },
    {
      "inputs": [],
      "name": "_charityAddress",
      "outputs": [
        {
          "internalType": "address",
          "name": "",
          "type": "address"
        }
      ],
      "stateMutability": "view",
      "type": "function"
    },
    {
      "inputs": [],
      "name": "_charityFee",
      "outputs": [
        {
          "internalType": "uint256",
          "name": "",
          "type": "uint256"
        }
      ],
      "stateMutability": "view",
      "type": "function"
    },
    {
      "inputs": [],
      "name": "_liquidityFee",
      "outputs": [
        {
          "internalType": "uint256",
          "name": "",
          "type": "uint256"
        }
      ],
      "stateMutability": "view",
      "type": "function"
    },
    {
      "inputs": [],
      "name": "_marketingFee",
      "outputs": [
        {
          "internalType": "uint256",
          "name": "",
          "type": "uint256"
        }
      ],
      "stateMutability": "view",
      "type": "function"
    },
    {
      "inputs": [],
      "name": "_marketingWalletAddress",
      "outputs": [
        {
          "internalType": "address",
          "name": "",
          "type": "address"
        }
      ],
      "stateMutability": "view",
      "type": "function"
    },
    {
      "inputs": [],
      "name": "_maxTxAmount",
      "outputs": [
        {
          "internalType": "uint256",
          "name": "",
          "type": "uint256"
        }
      ],
      "stateMutability": "view",
      "type": "function"
    },
    {
      "inputs": [],
      "name": "_taxFee",
      "outputs": [
        {
          "internalType": "uint256",
          "name": "",
          "type": "uint256"
        }
      ],
      "stateMutability": "view",
      "type": "function"
    },
    {
      "inputs": [],
      "name": "antiSniping_blocks",
      "outputs": [
        {
          "internalType": "uint256",
          "name": "",
          "type": "uint256"
        }
      ],
      "stateMutability": "view",
      "type": "function"
    },
    {
      "inputs": [],
      "name": "antiSniping_failsafe",
      "outputs": [
        {
          "internalType": "bool",
          "name": "",
          "type": "bool"
        }
      ],
      "stateMutability": "view",
      "type": "function"
    },
    {
      "inputs": [],
      "name": "noFeesBetweenUsersEnabled",
      "outputs": [
        {
          "internalType": "bool",
          "name": "",
          "type": "bool"
        }
      ],
      "stateMutability": "view",
      "type": "function"
    },
    {
      "inputs": [],
      "name": "owner",
      "outputs": [
        {
          "internalType": "address",
          "name": "",
          "type": "address"
        }
      ],
      "stateMutability": "view",
      "type": "function"
    },
    {
      "inputs": [],
      "name": "renounceOwnership",
      "outputs": [],
      "stateMutability": "nonpayable",
      "type": "function"
    },
    {
      "inputs": [],
      "name": "salePenalizationEnabled",
      "outputs": [
        {
          "internalType": "bool",
          "name": "",
          "type": "bool"
        }
      ],
      "stateMutability": "view",
      "type": "function"
    },
    {
      "inputs": [],
      "name": "shouldBurn",
      "outputs": [
        {
          "internalType": "bool",
          "name": "",
          "type": "bool"
        }
      ],
      "stateMutability": "view",
      "type": "function"
    },
    {
      "inputs": [],
      "name": "shouldLiquidate",
      "outputs": [
        {
          "internalType": "bool",
          "name": "",
          "type": "bool"
        }
      ],
      "stateMutability": "view",
      "type": "function"
    },
    {
      "inputs": [],
      "name": "shouldReflect",
      "outputs": [
        {
          "internalType": "bool",
          "name": "",
          "type": "bool"
        }
      ],
      "stateMutability": "view",
      "type": "function"
    },
    {
      "inputs": [],
      "name": "shouldTakeCharity",
      "outputs": [
        {
          "internalType": "bool",
          "name": "",
          "type": "bool"
        }
      ],
      "stateMutability": "view",
      "type": "function"
    },
    {
      "inputs": [],
      "name": "shouldTakeMarketing",
      "outputs": [
        {
          "internalType": "bool",
          "name": "",
          "type": "bool"
        }
      ],
      "stateMutability": "view",
      "type": "function"
    },
    {
      "inputs": [],
      "name": "swapAndLiquifyEnabled",
      "outputs": [
        {
          "internalType": "bool",
          "name": "",
          "type": "bool"
        }
      ],
      "stateMutability": "view",
      "type": "function"
    },
    {
      "inputs": [
        {
          "internalType": "address",
          "name": "newOwner",
          "type": "address"
        }
      ],
      "name": "transferOwnership",
      "outputs": [],
      "stateMutability": "nonpayable",
      "type": "function"
    },
    {
      "inputs": [],
      "name": "uniswapV2Router",
      "outputs": [
        {
          "internalType": "contract IUniswapV2Router02",
          "name": "",
          "type": "address"
        }
      ],
      "stateMutability": "view",
      "type": "function"
    },
    {
      "stateMutability": "payable",
      "type": "receive"
    },
    {
      "inputs": [],
      "name": "name",
      "outputs": [
        {
          "internalType": "string",
          "name": "",
          "type": "string"
        }
      ],
      "stateMutability": "view",
      "type": "function"
    },
    {
      "inputs": [],
      "name": "symbol",
      "outputs": [
        {
          "internalType": "string",
          "name": "",
          "type": "string"
        }
      ],
      "stateMutability": "view",
      "type": "function"
    },
    {
      "inputs": [],
      "name": "decimals",
      "outputs": [
        {
          "internalType": "uint8",
          "name": "",
          "type": "uint8"
        }
      ],
      "stateMutability": "view",
      "type": "function"
    },
    {
      "inputs": [],
      "name": "totalSupply",
      "outputs": [
        {
          "internalType": "uint256",
          "name": "",
          "type": "uint256"
        }
      ],
      "stateMutability": "view",
      "type": "function"
    },
    {
      "inputs": [
        {
          "internalType": "bool",
          "name": "toggle",
          "type": "bool"
        }
      ],
      "name": "manualLaunchOverride",
      "outputs": [],
      "stateMutability": "nonpayable",
      "type": "function"
    },
    {
      "inputs": [
        {
          "internalType": "bool",
          "name": "failsafe",
          "type": "bool"
        }
      ],
      "name": "setAntiSnipeFailsafe",
      "outputs": [],
      "stateMutability": "nonpayable",
      "type": "function"
    },
    {
      "inputs": [
        {
          "internalType": "address",
          "name": "account",
          "type": "address"
        }
      ],
      "name": "balanceOf",
      "outputs": [
        {
          "internalType": "uint256",
          "name": "",
          "type": "uint256"
        }
      ],
      "stateMutability": "view",
      "type": "function"
    },
    {
      "inputs": [
        {
          "internalType": "address",
          "name": "recipient",
          "type": "address"
        },
        {
          "internalType": "uint256",
          "name": "amount",
          "type": "uint256"
        }
      ],
      "name": "transfer",
      "outputs": [
        {
          "internalType": "bool",
          "name": "",
          "type": "bool"
        }
      ],
      "stateMutability": "nonpayable",
      "type": "function"
    },
    {
      "inputs": [
        {
          "internalType": "address",
          "name": "owner",
          "type": "address"
        },
        {
          "internalType": "address",
          "name": "spender",
          "type": "address"
        }
      ],
      "name": "allowance",
      "outputs": [
        {
          "internalType": "uint256",
          "name": "",
          "type": "uint256"
        }
      ],
      "stateMutability": "view",
      "type": "function"
    },
    {
      "inputs": [
        {
          "internalType": "address",
          "name": "spender",
          "type": "address"
        },
        {
          "internalType": "uint256",
          "name": "amount",
          "type": "uint256"
        }
      ],
      "name": "approve",
      "outputs": [
        {
          "internalType": "bool",
          "name": "",
          "type": "bool"
        }
      ],
      "stateMutability": "nonpayable",
      "type": "function"
    },
    {
      "inputs": [
        {
          "internalType": "address",
          "name": "sender",
          "type": "address"
        },
        {
          "internalType": "address",
          "name": "recipient",
          "type": "address"
        },
        {
          "internalType": "uint256",
          "name": "amount",
          "type": "uint256"
        }
      ],
      "name": "transferFrom",
      "outputs": [
        {
          "internalType": "bool",
          "name": "",
          "type": "bool"
        }
      ],
      "stateMutability": "nonpayable",
      "type": "function"
    },
    {
      "inputs": [
        {
          "internalType": "address",
          "name": "spender",
          "type": "address"
        },
        {
          "internalType": "uint256",
          "name": "addedValue",
          "type": "uint256"
        }
      ],
      "name": "increaseAllowance",
      "outputs": [
        {
          "internalType": "bool",
          "name": "",
          "type": "bool"
        }
      ],
      "stateMutability": "nonpayable",
      "type": "function"
    },
    {
      "inputs": [
        {
          "internalType": "address",
          "name": "spender",
          "type": "address"
        },
        {
          "internalType": "uint256",
          "name": "subtractedValue",
          "type": "uint256"
        }
      ],
      "name": "decreaseAllowance",
      "outputs": [
        {
          "internalType": "bool",
          "name": "",
          "type": "bool"
        }
      ],
      "stateMutability": "nonpayable",
      "type": "function"
    },
    {
      "inputs": [
        {
          "internalType": "address",
          "name": "account",
          "type": "address"
        }
      ],
      "name": "isExcludedFromReward",
      "outputs": [
        {
          "internalType": "bool",
          "name": "",
          "type": "bool"
        }
      ],
      "stateMutability": "view",
      "type": "function"
    },
    {
      "inputs": [],
      "name": "totalFees",
      "outputs": [
        {
          "internalType": "uint256",
          "name": "",
          "type": "uint256"
        }
      ],
      "stateMutability": "view",
      "type": "function"
    },
    {
      "inputs": [
        {
          "internalType": "uint256",
          "name": "tAmount",
          "type": "uint256"
        }
      ],
      "name": "deliver",
      "outputs": [],
      "stateMutability": "nonpayable",
      "type": "function"
    },
    {
      "inputs": [
        {
          "internalType": "uint256",
          "name": "tAmount",
          "type": "uint256"
        },
        {
          "internalType": "bool",
          "name": "deductTransferFee",
          "type": "bool"
        }
      ],
      "name": "reflectionFromToken",
      "outputs": [
        {
          "internalType": "uint256",
          "name": "",
          "type": "uint256"
        }
      ],
      "stateMutability": "view",
      "type": "function"
    },
    {
      "inputs": [
        {
          "internalType": "uint256",
          "name": "rAmount",
          "type": "uint256"
        }
      ],
      "name": "tokenFromReflection",
      "outputs": [
        {
          "internalType": "uint256",
          "name": "",
          "type": "uint256"
        }
      ],
      "stateMutability": "view",
      "type": "function"
    },
    {
      "inputs": [
        {
          "internalType": "address",
          "name": "account",
          "type": "address"
        }
      ],
      "name": "excludeFromReward",
      "outputs": [],
      "stateMutability": "nonpayable",
      "type": "function"
    },
    {
      "inputs": [
        {
          "internalType": "address",
          "name": "account",
          "type": "address"
        }
      ],
      "name": "includeInReward",
      "outputs": [],
      "stateMutability": "nonpayable",
      "type": "function"
    },
    {
      "inputs": [
        {
          "internalType": "address",
          "name": "account",
          "type": "address"
        },
        {
          "internalType": "bool",
          "name": "isExcluded",
          "type": "bool"
        }
      ],
      "name": "setIsExcludedFromTXLimit",
      "outputs": [],
      "stateMutability": "nonpayable",
      "type": "function"
    },
    {
      "inputs": [
        {
          "internalType": "address",
          "name": "account",
          "type": "address"
        }
      ],
      "name": "isExcludedFromTXLimit",
      "outputs": [
        {
          "internalType": "bool",
          "name": "",
          "type": "bool"
        }
      ],
      "stateMutability": "view",
      "type": "function"
    },
    {
      "inputs": [
        {
          "internalType": "address",
          "name": "account",
          "type": "address"
        }
      ],
      "name": "excludeFromFee",
      "outputs": [],
      "stateMutability": "nonpayable",
      "type": "function"
    },
    {
      "inputs": [
        {
          "internalType": "address",
          "name": "account",
          "type": "address"
        }
      ],
      "name": "includeInFee",
      "outputs": [],
      "stateMutability": "nonpayable",
      "type": "function"
    },
    {
      "inputs": [
        {
          "internalType": "uint256",
          "name": "taxFee",
          "type": "uint256"
        }
      ],
      "name": "setTaxFeePercent",
      "outputs": [],
      "stateMutability": "nonpayable",
      "type": "function"
    },
    {
      "inputs": [
        {
          "internalType": "uint256",
          "name": "marketingFee",
          "type": "uint256"
        }
      ],
      "name": "setMarketingFeePercent",
      "outputs": [],
      "stateMutability": "nonpayable",
      "type": "function"
    },
    {
      "inputs": [
        {
          "internalType": "uint256",
          "name": "liquidityFee",
          "type": "uint256"
        }
      ],
      "name": "setLiquidityFeePercent",
      "outputs": [],
      "stateMutability": "nonpayable",
      "type": "function"
    },
    {
      "inputs": [
        {
          "internalType": "uint256",
          "name": "maxTxPercent",
          "type": "uint256"
        }
      ],
      "name": "setMaxTxPercent",
      "outputs": [],
      "stateMutability": "nonpayable",
      "type": "function"
    },
    {
      "inputs": [
        {
          "internalType": "bool",
          "name": "toggle",
          "type": "bool"
        }
      ],
      "name": "setSwapAndLiquifyEnabled",
      "outputs": [],
      "stateMutability": "nonpayable",
      "type": "function"
    },
    {
      "inputs": [
        {
          "internalType": "uint256",
          "name": "blocks",
          "type": "uint256"
        }
      ],
      "name": "setAntiSnipingBlocks",
      "outputs": [],
      "stateMutability": "nonpayable",
      "type": "function"
    },
    {
      "inputs": [
        {
          "internalType": "bool",
          "name": "toggle",
          "type": "bool"
        }
      ],
      "name": "setSalePenalizationEnabled",
      "outputs": [],
      "stateMutability": "nonpayable",
      "type": "function"
    },
    {
      "inputs": [
        {
          "internalType": "address",
          "name": "account",
          "type": "address"
        }
      ],
      "name": "setMarketingAddr",
      "outputs": [],
      "stateMutability": "nonpayable",
      "type": "function"
    },
    {
      "inputs": [],
      "name": "getMarketingAddr",
      "outputs": [
        {
          "internalType": "address",
          "name": "",
          "type": "address"
        }
      ],
      "stateMutability": "view",
      "type": "function"
    },
    {
      "inputs": [
        {
          "internalType": "address",
          "name": "account",
          "type": "address"
        }
      ],
      "name": "isExcludedFromFee",
      "outputs": [
        {
          "internalType": "bool",
          "name": "",
          "type": "bool"
        }
      ],
      "stateMutability": "view",
      "type": "function"
    }
  ],
  "bytecode": "0x610100604052601560c08190527f536d61727420506c616365732050726f746f636f6c000000000000000000000060e090815262000041916008919062000644565b506040805180820190915260078082527f534d4152544545000000000000000000000000000000000000000000000000006020909201918252620000889160099162000644565b50600a805460ff191660099081178255620000a3916200077e565b620000b390633b9aca006200083e565b600b819055620000c690600019620008d0565b620000d49060001962000860565b600c55600e8054600160ff1991821681179092556003600f5560108054821690556011829055601282905560138054821683179055601482905560158290556016805462ff00ff19166201000117905560178290556018829055601980547401000000000000000000000000000000000000000060a060020a60ff02199182168117909255601a849055601b849055601c80549091169091179055601d829055601e91909155601f8054600160a860020a0319167401000000000000000000000000000000000000dead179055602180549091169055600b54620001c8906064640100000000620005ca8102620017e61704565b6022819055620001e890600a640100000000620017e6620005ca82021704565b6023556024805460ff191690553480156200020257600080fd5b5060405162003fa338038062003fa38339810160408190526200022591620006ea565b6200024b6200023c640100000000620005e1810204565b640100000000620005e5810204565b600c546001600062000265640100000000620005e1810204565b600160a060020a0316600160a060020a031681526020019081526020016000208190555060007310ed43c718714eb63d5aa57b78b54704e256024e905080600160a060020a031663c45a01556040518163ffffffff167c010000000000000000000000000000000000000000000000000000000002815260040160206040518083038186803b158015620002f857600080fd5b505afa1580156200030d573d6000803e3d6000fd5b505050506040513d601f19601f82011682018060405250810190620003339190620006ea565b600160a060020a031663c9c653963083600160a060020a031663ad5c46486040518163ffffffff167c010000000000000000000000000000000000000000000000000000000002815260040160206040518083038186803b1580156200039857600080fd5b505afa158015620003ad573d6000803e3d6000fd5b505050506040513d601f19601f82011682018060405250810190620003d39190620006ea565b6040517c010000000000000000000000000000000000000000000000000000000063ffffffff8516028152600160a060020a03928316600482015291166024820152604401602060405180830381600087803b1580156200043357600080fd5b505af115801562000448573d6000803e3d6000fd5b505050506040513d601f19601f820116820180604052508101906200046e9190620006ea565b6c01000000000000000000000000600160a060020a03918216810260a05290821602608052600160046000620004ac64010000000062000635810204565b600160a060020a03908116825260208083019390935260409182016000908120805495151560ff199687161790553081526004845282812080548616600190811790915560198054898516600160a060020a031991821617909155601f80548516845260059096529382208054909616811790955592546006805495860181559093527ff652222313e28459528d920b65115c16c04f3efc82aaedc97be59f3f377c0d3f90930180549091169190921617905562000572640100000000620005e1810204565b600160a060020a03166000600160a060020a03167fddf252ad1be2c89b69c2b068fc378daa952ba7f163c4a11628f55a4df523b3ef600b54604051620005ba91815260200190565b60405180910390a3505062000945565b6000620005d882846200071c565b90505b92915050565b3390565b60008054600160a060020a03838116600160a060020a0319831681178455604051919092169283917f8be0079c531659141344cd1fd0a4f28419497f9722a3daafe3b4186f6b6457e09190a35050565b600054600160a060020a031690565b82805462000652906200087a565b90600052602060002090601f016020900481019282620006765760008555620006c1565b82601f106200069157805160ff1916838001178555620006c1565b82800160010185558215620006c1579182015b82811115620006c1578251825591602001919060010190620006a4565b50620006cf929150620006d3565b5090565b5b80821115620006cf5760008155600101620006d4565b600060208284031215620006fd57600080fd5b8151600160a060020a03811681146200071557600080fd5b9392505050565b6000826200072e576200072e62000916565b500490565b600181815b8085111562000776578160001904821115620007585762000758620008e7565b808516156200076657918102915b6002909404939080029062000738565b509250929050565b6000620005d860ff8416836000826200079a57506001620005db565b81620007a957506000620005db565b8160018114620007c25760028114620007cd57620007ee565b6001915050620005db565b60ff841115620007e157620007e1620008e7565b8360020a915050620005db565b5060208310610133831016604e8410600b841016171562000813575081810a620005db565b6200081f838362000733565b8060001904821115620008365762000836620008e7565b029392505050565b60008160001904831182151516156200085b576200085b620008e7565b500290565b600082821015620008755762000875620008e7565b500390565b6002810460018216806200088f57607f821691505b60208210811415620008ca577f4e487b7100000000000000000000000000000000000000000000000000000000600052602260045260246000fd5b50919050565b600082620008e257620008e262000916565b500690565b7f4e487b7100000000000000000000000000000000000000000000000000000000600052601160045260246000fd5b7f4e487b7100000000000000000000000000000000000000000000000000000000600052601260045260246000fd5b6080516c01000000000000000000000000900460a0516c0100000000000000000000000090046135e0620009c36000396000818161085f01528181611ad401528181611cf00152611de501526000818161047c015281816125920152818161265d015281816126b20152818161272c015261275301526135e06000f3fe6080604052600436106103895760003560e060020a900480635342acb4116101d5578063a9059cbb11610106578063d543dbeb116100a4578063ea2f0b3711610073578063ea2f0b3714610ad7578063f2a3254414610af7578063f2fde38b14610b17578063f59a67e114610b3757600080fd5b8063d543dbeb14610a3b578063dd62ed3e14610a5b578063e23ba26d14610aa1578063e6918f7314610ab757600080fd5b8063bd3900c0116100e0578063bd3900c0146109c5578063bd9c7f10146109e5578063c0b0fda214610a05578063c49b9a8014610a1b57600080fd5b8063a9059cbb1461096d578063b8edab001461098d578063b9d46c38146109ab57600080fd5b806388f820201161017357806395d89b411161014d57806395d89b41146108f85780639e1ac9f61461090d578063a457c2d71461092d578063a7c1d5901461094d57600080fd5b806388f82020146108815780638da5cb5b146108ba5780638ee88c53146108d857600080fd5b806370a08231116101af57806370a0823114610802578063715018a6146108225780637d1db4a5146108375780637ebcc47b1461084d57600080fd5b80635342acb4146107995780636bc87c3a146107d25780636f60ff16146107e857600080fd5b8063313ce567116102ba57806340f8007a11610258578063457c194c11610227578063457c194c146107075780634a74bb02146107275780634c67efbe1461074757806352390c021461077957600080fd5b806340f8007a146106915780634144d9e4146106a7578063437823ec146106c75780634549b039146106e757600080fd5b80633685d419116102945780633685d4191461061b578063395093511461063b5780633b124fe71461065b5780633bd5d1731461067157600080fd5b8063313ce5671461059557806331b48055146105b7578063349f6594146105e957600080fd5b806318ece7831161032757806323b872dd1161030157806323b872dd1461051b5780632d8381191461053b5780632f01c7641461055b5780632ff3a70c1461057557600080fd5b806318ece783146104cb57806319a8ac9e146104e557806322976e0d1461050557600080fd5b80631112efb5116103635780631112efb51461041257806313114a9d1461044b5780631694505e1461046a57806318160ddd146104b657600080fd5b8063061c82d01461039557806306fdde03146103b7578063095ea7b3146103e257600080fd5b3661039057005b600080fd5b3480156103a157600080fd5b506103b56103b03660046132ac565b610b51565b005b3480156103c357600080fd5b506103cc610b8c565b6040516103d99190613316565b60405180910390f35b3480156103ee57600080fd5b506104026103fd366004613265565b610c1e565b60405190151581526020016103d9565b34801561041e57600080fd5b5061040261042d36600461317c565b600160a060020a031660009081526007602052604090205460ff1690565b34801561045757600080fd5b50600d545b6040519081526020016103d9565b34801561047657600080fd5b5061049e7f000000000000000000000000000000000000000000000000000000000000000081565b604051600160a060020a0390911681526020016103d9565b3480156104c257600080fd5b50600b5461045c565b3480156104d757600080fd5b506024546104029060ff1681565b3480156104f157600080fd5b50601c5461049e90600160a060020a031681565b34801561051157600080fd5b5061045c60175481565b34801561052757600080fd5b506104026105363660046131ef565b610c35565b34801561054757600080fd5b5061045c6105563660046132ac565b610c9e565b34801561056757600080fd5b50600e546104029060ff1681565b34801561058157600080fd5b506103b5610590366004613230565b610d3a565b3480156105a157600080fd5b50600a5460405160ff90911681526020016103d9565b3480156105c357600080fd5b50601f546104029074010000000000000000000000000000000000000000900460ff1681565b3480156105f557600080fd5b506019546104029074010000000000000000000000000000000000000000900460ff1681565b34801561062757600080fd5b506103b561063636600461317c565b610d92565b34801561064757600080fd5b50610402610656366004613265565b610f69565b34801561066757600080fd5b5061045c60115481565b34801561067d57600080fd5b506103b561068c3660046132ac565b610f9f565b34801561069d57600080fd5b5061045c601a5481565b3480156106b357600080fd5b5060195461049e90600160a060020a031681565b3480156106d357600080fd5b506103b56106e236600461317c565b6110b8565b3480156106f357600080fd5b5061045c6107023660046132c5565b611109565b34801561071357600080fd5b506103b56107223660046132ac565b6111cb565b34801561073357600080fd5b506016546104029062010000900460ff1681565b34801561075357600080fd5b50601c546104029074010000000000000000000000000000000000000000900460ff1681565b34801561078557600080fd5b506103b561079436600461317c565b6111fd565b3480156107a557600080fd5b506104026107b436600461317c565b600160a060020a031660009081526004602052604090205460ff1690565b3480156107de57600080fd5b5061045c60145481565b3480156107f457600080fd5b506016546104029060ff1681565b34801561080e57600080fd5b5061045c61081d36600461317c565b611389565b34801561082e57600080fd5b506103b56113e8565b34801561084357600080fd5b5061045c60225481565b34801561085957600080fd5b5061049e7f000000000000000000000000000000000000000000000000000000000000000081565b34801561088d57600080fd5b5061040261089c36600461317c565b600160a060020a031660009081526005602052604090205460ff1690565b3480156108c657600080fd5b50600054600160a060020a031661049e565b3480156108e457600080fd5b506103b56108f33660046132ac565b611421565b34801561090457600080fd5b506103cc611453565b34801561091957600080fd5b506103b5610928366004613291565b611462565b34801561093957600080fd5b50610402610948366004613265565b6114aa565b34801561095957600080fd5b506103b561096836600461317c565b6114f9565b34801561097957600080fd5b50610402610988366004613265565b611555565b34801561099957600080fd5b50601954600160a060020a031661049e565b3480156109b757600080fd5b506013546104029060ff1681565b3480156109d157600080fd5b50601f5461049e90600160a060020a031681565b3480156109f157600080fd5b506103b5610a00366004613291565b611562565b348015610a1157600080fd5b5061045c601d5481565b348015610a2757600080fd5b506103b5610a36366004613291565b6115a2565b348015610a4757600080fd5b506103b5610a563660046132ac565b61161a565b348015610a6757600080fd5b5061045c610a763660046131b6565b600160a060020a03918216600090815260036020908152604080832093909416825291909152205490565b348015610aad57600080fd5b5061045c600f5481565b348015610ac357600080fd5b506103b5610ad23660046132ac565b61166e565b348015610ae357600080fd5b506103b5610af236600461317c565b6116a0565b348015610b0357600080fd5b506103b5610b12366004613291565b6116ee565b348015610b2357600080fd5b506103b5610b3236600461317c565b61172e565b348015610b4357600080fd5b506010546104029060ff1681565b600054600160a060020a03163314610b875760405160e560020a62461bcd028152600401610b7e9061336b565b60405180910390fd5b601155565b606060088054610b9b90613484565b80601f0160208091040260200160405190810160405280929190818152602001828054610bc790613484565b8015610c145780601f10610be957610100808354040283529160200191610c14565b820191906000526020600020905b815481529060010190602001808311610bf757829003601f168201915b5050505050905090565b6000610c2b3384846117f2565b5060015b92915050565b6000610c42848484611950565b610c948433610c8f8560405180606001604052806028815260200161353e60289139600160a060020a038a1660009081526003602090815260408083203384529091529020549190611e62565b6117f2565b5060019392505050565b6000600c54821115610d1d576040805160e560020a62461bcd0281526020600482015260248101919091527f546f6b656e7346726f6d5265666c656374696f6e3a20416d6f756e74206d757360448201527f74206265206c657373207468616e20746f74616c207265666c656374696f6e736064820152608401610b7e565b6000610d27611e91565b9050610d3383826117e6565b9392505050565b600054600160a060020a03163314610d675760405160e560020a62461bcd028152600401610b7e9061336b565b600160a060020a03919091166000908152600760205260409020805460ff1916911515919091179055565b600054600160a060020a03163314610dbf5760405160e560020a62461bcd028152600401610b7e9061336b565b600160a060020a03811660009081526005602052604090205460ff16610e2a5760405160e560020a62461bcd02815260206004820152601b60248201527f4163636f756e7420697320616c726561647920696e636c7564656400000000006044820152606401610b7e565b60005b600654811015610f655781600160a060020a031660068281548110610e5457610e5461350f565b600091825260209091200154600160a060020a03161415610f535760068054610e7f9060019061346d565b81548110610e8f57610e8f61350f565b60009182526020909120015460068054600160a060020a039092169183908110610ebb57610ebb61350f565b6000918252602080832091909101805473ffffffffffffffffffffffffffffffffffffffff1916600160a060020a039485161790559184168152600282526040808220829055600590925220805460ff191690556006805480610f2057610f206134f6565b6000828152602090208101600019908101805473ffffffffffffffffffffffffffffffffffffffff191690550190555050565b80610f5d816134c2565b915050610e2d565b5050565b336000818152600360209081526040808320600160a060020a03871684529091528120549091610c2b918590610c8f9086611eb4565b3360008181526005602052604090205460ff16156110285760405160e560020a62461bcd02815260206004820152602c60248201527f4578636c75646564206164647265737365732063616e6e6f742063616c6c207460448201527f6869732066756e6374696f6e00000000000000000000000000000000000000006064820152608401610b7e565b604080518082019091526000808252602082018190529061104a908490611ec0565b505050600160a060020a03871660009081526001602052604090205494955061107a949350859250506120039050565b600160a060020a038316600090815260016020526040902055600c546110a09082612003565b600c55600d546110b09084611eb4565b600d55505050565b600054600160a060020a031633146110e55760405160e560020a62461bcd028152600401610b7e9061336b565b600160a060020a03166000908152600460205260409020805460ff19166001179055565b6000600b548311156111605760405160e560020a62461bcd02815260206004820152601f60248201527f416d6f756e74206d757374206265206c657373207468616e20737570706c79006044820152606401610b7e565b81611198576040805180820190915260008082526020820181905290611187908590611ec0565b50959750610c2f9650505050505050565b60408051808201909152600080825260208201819052906111ba908590611ec0565b50949750610c2f9650505050505050565b600054600160a060020a031633146111f85760405160e560020a62461bcd028152600401610b7e9061336b565b601755565b600054600160a060020a0316331461122a5760405160e560020a62461bcd028152600401610b7e9061336b565b600160a060020a03811660009081526005602052604090205460ff16156112bc5760405160e560020a62461bcd02815260206004820152602b60248201527f4578636c75646546726f6d5265776172643a204163636f756e7420616c72656160448201527f6479206578636c756465640000000000000000000000000000000000000000006064820152608401610b7e565b600160a060020a0381166000908152600160205260409020541561131657600160a060020a0381166000908152600160205260409020546112fc90610c9e565b600160a060020a0382166000908152600260205260409020555b600160a060020a03166000818152600560205260408120805460ff191660019081179091556006805491820181559091527ff652222313e28459528d920b65115c16c04f3efc82aaedc97be59f3f377c0d3f01805473ffffffffffffffffffffffffffffffffffffffff19169091179055565b600160a060020a03811660009081526005602052604081205460ff16156113c65750600160a060020a031660009081526002602052604090205490565b600160a060020a038216600090815260016020526040902054610c2f90610c9e565b600054600160a060020a031633146114155760405160e560020a62461bcd028152600401610b7e9061336b565b61141f600061200f565b565b600054600160a060020a0316331461144e5760405160e560020a62461bcd028152600401610b7e9061336b565b601455565b606060098054610b9b90613484565b600e805460ff19168215159081179091556040519081527f59fb13f7f8e0e42ab14ddf13ce1aebeb1474c6c26fe816e079e3fe60d51e1e4b906020015b60405180910390a150565b6000610c2b3384610c8f8560405180606001604052806025815260200161358660259139336000908152600360209081526040808320600160a060020a038d1684529091529020549190611e62565b600054600160a060020a031633146115265760405160e560020a62461bcd028152600401610b7e9061336b565b6019805473ffffffffffffffffffffffffffffffffffffffff1916600160a060020a0392909216919091179055565b6000610c2b338484611950565b600054600160a060020a0316331461158f5760405160e560020a62461bcd028152600401610b7e9061336b565b6021805460ff1916911515919091179055565b600054600160a060020a031633146115cf5760405160e560020a62461bcd028152600401610b7e9061336b565b60168054821515620100000262ff0000199091161790556040517f53726dfcaf90650aa7eb35524f4d3220f07413c8d6cb404cc8c18bf5591bc1599061149f90831515815260200190565b600054600160a060020a031633146116475760405160e560020a62461bcd028152600401610b7e9061336b565b61166861271061166283600b5461206c90919063ffffffff16565b906117e6565b60225550565b600054600160a060020a0316331461169b5760405160e560020a62461bcd028152600401610b7e9061336b565b600f55565b600054600160a060020a031633146116cd5760405160e560020a62461bcd028152600401610b7e9061336b565b600160a060020a03166000908152600460205260409020805460ff19169055565b600054600160a060020a0316331461171b5760405160e560020a62461bcd028152600401610b7e9061336b565b6010805460ff1916911515919091179055565b600054600160a060020a0316331461175b5760405160e560020a62461bcd028152600401610b7e9061336b565b600160a060020a0381166117da5760405160e560020a62461bcd02815260206004820152602660248201527f4f776e61626c653a206e6577206f776e657220697320746865207a65726f206160448201527f64647265737300000000000000000000000000000000000000000000000000006064820152608401610b7e565b6117e38161200f565b50565b6000610d338284613429565b600160a060020a0383166118705760405160e560020a62461bcd028152602060048201526024808201527f45524332303a20617070726f76652066726f6d20746865207a65726f2061646460448201527f72657373000000000000000000000000000000000000000000000000000000006064820152608401610b7e565b600160a060020a0382166118ef5760405160e560020a62461bcd02815260206004820152602260248201527f45524332303a20617070726f766520746f20746865207a65726f20616464726560448201527f73730000000000000000000000000000000000000000000000000000000000006064820152608401610b7e565b600160a060020a0383811660008181526003602090815260408083209487168084529482529182902085905590518481527f8c5be1e5ebec7d5bd14f71427d1e84f3dd0314c0f7b2291e5b200ac8c7c3b925910160405180910390a3505050565b600160a060020a0383166119cf5760405160e560020a62461bcd02815260206004820152602560248201527f45524332303a207472616e736665722066726f6d20746865207a65726f20616460448201527f64726573730000000000000000000000000000000000000000000000000000006064820152608401610b7e565b600160a060020a038216611a4e5760405160e560020a62461bcd02815260206004820152602360248201527f45524332303a207472616e7366657220746f20746865207a65726f206164647260448201527f65737300000000000000000000000000000000000000000000000000000000006064820152608401610b7e565b60008111611ac75760405160e560020a62461bcd02815260206004820152602960248201527f5472616e7366657220616d6f756e74206d75737420626520677265617465722060448201527f7468616e207a65726f00000000000000000000000000000000000000000000006064820152608401610b7e565b602054158015611b0857507f0000000000000000000000000000000000000000000000000000000000000000600160a060020a031682600160a060020a0316145b80611b15575060215460ff165b15611bca576000611b2584611389565b11611bc15760405160e560020a62461bcd02815260206004820152604560248201527f534d415254504c414345533a2041726520796f7520747279696e6720746f206c60448201527f61756e636820776974686f75742061637475616c6c7920686176696e6720746f60648201527f6b656e733f000000000000000000000000000000000000000000000000000000608482015260a401610b7e565b611bca43602055565b600054600160a060020a03848116911614801590611bf65750600054600160a060020a03838116911614155b8015611c1b5750600160a060020a03831660009081526007602052604090205460ff16155b15611c9b57602254811115611c9b5760405160e560020a62461bcd02815260206004820152603160248201527f534d415254504c414345533a205472616e7366657220616d6f756e742065786360448201527f65656473206d61785478416d6f756e742e0000000000000000000000000000006064820152608401610b7e565b6000611ca630611389565b90506022548110611cb657506022545b602354601654908210159062010000900460ff168015611cd35750805b8015611ce75750601654610100900460ff16155b8015611d2557507f0000000000000000000000000000000000000000000000000000000000000000600160a060020a031685600160a060020a031614155b15611d38576023549150611d3882612078565b600160a060020a03851660009081526004602052604090205460019060ff1680611d7a5750600160a060020a03851660009081526004602052604090205460ff165b80611dab575060245460ff168015611dab5750600160a060020a03861660009081526025602052604090205460ff16155b15611db4575060005b600e5460009060ff168015611dd8575043600f54602054611dd59190613411565b10155b15611de1575060015b60007f0000000000000000000000000000000000000000000000000000000000000000600160a060020a031687600160a060020a0316148015611e26575060105460ff165b15611e2f575060015b611e5888888886604051806040016040528087151515158152602001881515151581525061211b565b5050505050505050565b60008184841115611e895760405160e560020a62461bcd028152600401610b7e9190613316565b505050900390565b6000806000611e9e6122a1565b9092509050611ead82826117e6565b9250505090565b6000610d338284613411565b600080600080600080600080611efe6040518060a0016040528060008152602001600081526020016000815260200160008152602001600081525090565b611f2260405180606001604052806000815260200160008152602001600081525090565b6000806000611f318f8f612423565b8288526020880182905291945092509050806000602002015160408601528060016020020151606086015280600260200201518560800181815250505050506000806000611f958f866020015187604001518860600151611f90611e91565b6124c8565b925092509250828460000181815250508184602001818152505080846040018181525050505050806000015181602001518260400151846000015185602001518660400151876060015188608001519950995099509950995099509950995050509295985092959890939650565b6000610d33828461346d565b60008054600160a060020a0383811673ffffffffffffffffffffffffffffffffffffffff19831681178455604051919092169283917f8be0079c531659141344cd1fd0a4f28419497f9722a3daafe3b4186f6b6457e09190a35050565b6000610d33828461344e565b6016805461ff00191661010017905560006120948260026117e6565b905060006120a28383612003565b905030316120af8361253b565b60006120bc303183612003565b90506120c88382612726565b60408051858152602081018390529081018490527f17bbfb9a6069321b6ded73bd96327c9e6b7212a5cd51ff219cd61370acafb5619060600160405180910390a150506016805461ff0019169055505050565b8161212857612128612832565b600160a060020a03851660009081526005602052604090205460ff1680156121695750600160a060020a03841660009081526005602052604090205460ff16155b1561217e5761217985858561286b565b61227e565b600160a060020a03851660009081526005602052604090205460ff161580156121bf5750600160a060020a03841660009081526005602052604090205460ff165b156121cf576121798585856129cd565b600160a060020a03851660009081526005602052604090205460ff161580156122115750600160a060020a03841660009081526005602052604090205460ff16155b156122225761217985858584612aae565b600160a060020a03851660009081526005602052604090205460ff1680156122625750600160a060020a03841660009081526005602052604090205460ff165b1561227257612179858585612bc4565b61227e85858584612aae565b8161229a5761229a601254601155601854601755601554601455565b5050505050565b600c54600b546000918291825b6006548110156123f3578260016000600684815481106122d0576122d061350f565b6000918252602080832090910154600160a060020a03168352820192909252604001902054118061233b57508160026000600684815481106123145761231461350f565b6000918252602080832090910154600160a060020a03168352820192909252604001902054115b1561235157600c54600b54945094505050509091565b612397600160006006848154811061236b5761236b61350f565b6000918252602080832090910154600160a060020a031683528201929092526040019020548490612003565b92506123df60026000600684815481106123b3576123b361350f565b6000918252602080832090910154600160a060020a031683528201929092526040019020548390612003565b9150806123eb816134c2565b9150506122ae565b50600b54600c54612403916117e6565b82101561241a57600c54600b549350935050509091565b90939092509050565b60008061242e613149565b835160009061243e908790612d08565b9050600061244b87612d39565b90506000612460888860016020020151612d55565b9050600061246d89612d89565b9050600061247b8a86612003565b90506124878185612003565b90506124938184612003565b905061249f8183612003565b604080516060810182529586526020860194909452928401919091525097919650945092505050565b60008080806124d7898661206c565b90506000806124e68a8861206c565b905060006124f48a8961206c565b905060006125028a8a61206c565b905061250e8584612003565b935061251a8483612003565b93506125268482612003565b949d949c50919a509298505050505050505050565b60408051600280825260608201835260009260208301908036833701905050905030816000815181106125705761257061350f565b6020026020010190600160a060020a03169081600160a060020a0316815250507f0000000000000000000000000000000000000000000000000000000000000000600160a060020a031663ad5c46486040518163ffffffff1660e060020a02815260040160206040518083038186803b1580156125ec57600080fd5b505afa158015612600573d6000803e3d6000fd5b505050506040513d601f19601f820116820180604052508101906126249190613199565b816001815181106126375761263761350f565b6020026020010190600160a060020a03169081600160a060020a031681525050612682307f0000000000000000000000000000000000000000000000000000000000000000846117f2565b6040517f791ac947000000000000000000000000000000000000000000000000000000008152600160a060020a037f0000000000000000000000000000000000000000000000000000000000000000169063791ac947906126f09085906000908690309042906004016133a0565b600060405180830381600087803b15801561270a57600080fd5b505af115801561271e573d6000803e3d6000fd5b505050505050565b612751307f0000000000000000000000000000000000000000000000000000000000000000846117f2565b7f0000000000000000000000000000000000000000000000000000000000000000600160a060020a031663f305d719823085600080612798600054600160a060020a031690565b60405163ffffffff881660e060020a028152600160a060020a03958616600482015260248101949094526044840192909252606483015290911660848201524260a482015260c4016060604051808303818588803b1580156127f957600080fd5b505af115801561280d573d6000803e3d6000fd5b50505050506040513d601f19601f8201168201806040525081019061229a91906132e8565b6011541580156128425750601454155b1561284957565b6011805460125560178054601855601480546015556000928390559082905555565b60008060008060008060008061289f8960405180604001604052806000151515158152602001600015151515815250611ec0565b975097509750975097509750975097506128e789600260008e600160a060020a0316600160a060020a031681526020019081526020016000205461200390919063ffffffff16565b600160a060020a038c166000908152600260209081526040808320939093556001905220546129169089612003565b600160a060020a03808d1660009081526001602052604080822093909355908c16815220546129459088611eb4565b600160a060020a038b1660009081526001602052604090205561296783612da5565b612971828c612e2e565b61297b818c612ef0565b6129858685612fa7565b89600160a060020a03168b600160a060020a0316600080516020613566833981519152876040516129b891815260200190565b60405180910390a35050505050505050505050565b600080600080600080600080612a018960405180604001604052806000151515158152602001600015151515815250611ec0565b97509750975097509750975097509750612a4988600160008e600160a060020a0316600160a060020a031681526020019081526020016000205461200390919063ffffffff16565b600160a060020a03808d16600090815260016020908152604080832094909455918d16815260029091522054612a7f9086611eb4565b600160a060020a038b166000908152600260209081526040808320939093556001905220546129459088611eb4565b600080600080600080600080612ac48a8a611ec0565b97509750975097509750975097509750612b0c88600160008f600160a060020a0316600160a060020a031681526020019081526020016000205461200390919063ffffffff16565b600160a060020a03808e1660009081526001602052604080822093909355908d1681522054612b3b9088611eb4565b600160a060020a038c16600090815260016020526040902055612b5d83612da5565b612b67828d612e2e565b612b71818d612ef0565b612b7b8685612fa7565b8a600160a060020a03168c600160a060020a031660008051602061356683398151915287604051612bae91815260200190565b60405180910390a3505050505050505050505050565b600080600080600080600080612bf88960405180604001604052806000151515158152602001600015151515815250611ec0565b97509750975097509750975097509750612c4089600260008e600160a060020a0316600160a060020a031681526020019081526020016000205461200390919063ffffffff16565b600160a060020a038c16600090815260026020908152604080832093909355600190522054612c6f9089612003565b600160a060020a03808d16600090815260016020908152604080832094909455918d16815260029091522054612ca59086611eb4565b600160a060020a038b16600090815260026020908152604080832093909355600190522054612cd49088611eb4565b600160a060020a038b16600090815260016020526040902055612cf683612da5565b612cff82612fcb565b61297b8161308a565b6011546000908215612d2257612d1f81600261206c565b90505b612d316064611662868461206c565b949350505050565b6000610c2f60646116626014548561206c90919063ffffffff16565b6017546000908215612d2257612d1f601454612d83601154612d83601754605a61200390919063ffffffff16565b90612003565b6000610c2f6064611662601d548561206c90919063ffffffff16565b6000612daf611e91565b90506000612dbd838361206c565b30600090815260016020526040902054909150612dda9082611eb4565b3060009081526001602090815260408083209390935560059052205460ff1615612e295730600090815260026020526040902054612e189084611eb4565b306000908152600260205260409020555b505050565b6000612e38611e91565b90506000612e46848361206c565b601954600160a060020a031660008181526001602052604090205491925090612e6f9083611eb4565b600160a060020a038216600090815260016020908152604080832093909355600290522054612e9e9086611eb4565b600160a060020a03828116600090815260026020908152604091829020939093556019549051888152908216929187169160008051602061356683398151915291015b60405180910390a35050505050565b6000612efa611e91565b90506000612f08848361206c565b601f54600160a060020a031660008181526001602052604090205491925090612f319083611eb4565b600160a060020a038216600090815260016020908152604080832093909355600290522054612f609086611eb4565b600160a060020a0382811660009081526002602090815260409182902093909355601f54905188815290821692918716916000805160206135668339815191529101612ee1565b600c54612fb49083612003565b600c55600d54612fc49082611eb4565b600d555050565b6000612fd5611e91565b90506000612fe3838361206c565b601954600160a060020a031660009081526001602052604090205490915061300b9082611eb4565b60198054600160a060020a03908116600090815260016020908152604080832095909555925490911681526005909152205460ff1615612e2957601954600160a060020a031660009081526002602052604090205461306a9084611eb4565b601954600160a060020a0316600090815260026020526040902055505050565b6000613094611e91565b905060006130a2838361206c565b601f54600160a060020a03166000908152600160205260409020549091506130ca9082611eb4565b601f8054600160a060020a03908116600090815260016020908152604080832095909555925490911681526005909152205460ff1615612e2957601f54600160a060020a03166000908152600260205260409020546131299084611eb4565b601f54600160a060020a0316600090815260026020526040902055505050565b60405180606001604052806003906020820280368337509192915050565b8035801515811461317757600080fd5b919050565b60006020828403121561318e57600080fd5b8135610d3381613528565b6000602082840312156131ab57600080fd5b8151610d3381613528565b600080604083850312156131c957600080fd5b82356131d481613528565b915060208301356131e481613528565b809150509250929050565b60008060006060848603121561320457600080fd5b833561320f81613528565b9250602084013561321f81613528565b929592945050506040919091013590565b6000806040838503121561324357600080fd5b823561324e81613528565b915061325c60208401613167565b90509250929050565b6000806040838503121561327857600080fd5b823561328381613528565b946020939093013593505050565b6000602082840312156132a357600080fd5b610d3382613167565b6000602082840312156132be57600080fd5b5035919050565b600080604083850312156132d857600080fd5b8235915061325c60208401613167565b6000806000606084860312156132fd57600080fd5b8351925060208401519150604084015190509250925092565b600060208083528351808285015260005b8181101561334357858101830151858201604001528201613327565b81811115613355576000604083870101525b50601f01601f1916929092016040019392505050565b6020808252818101527f4f776e61626c653a2063616c6c6572206973206e6f7420746865206f776e6572604082015260600190565b600060a082018783526020878185015260a0604085015281875180845260c086019150828901935060005b818110156133f0578451600160a060020a0316835293830193918301916001016133cb565b5050600160a060020a03969096166060850152505050608001529392505050565b60008219821115613424576134246134dd565b500190565b6000826134495760e060020a634e487b7102600052601260045260246000fd5b500490565b6000816000190483118215151615613468576134686134dd565b500290565b60008282101561347f5761347f6134dd565b500390565b60028104600182168061349857607f821691505b602082108114156134bc5760e060020a634e487b7102600052602260045260246000fd5b50919050565b60006000198214156134d6576134d66134dd565b5060010190565b60e060020a634e487b7102600052601160045260246000fd5b60e060020a634e487b7102600052603160045260246000fd5b60e060020a634e487b7102600052603260045260246000fd5b600160a060020a03811681146117e357600080fdfe45524332303a207472616e7366657220616d6f756e74206578636565647320616c6c6f77616e6365ddf252ad1be2c89b69c2b068fc378daa952ba7f163c4a11628f55a4df523b3ef45524332303a2064656372656173656420616c6c6f77616e63652062656c6f77207a65726fa2646970667358221220a5d883375334315ea7e1822aa85219c960459e06a696288e01645d121cbf15c164736f6c63430008070033",
  "immutableReferences": {
    "884": [
      {
        "length": 32,
        "start": 1148
      },
      {
        "length": 32,
        "start": 9618
      },
      {
        "length": 32,
        "start": 9821
      },
      {
        "length": 32,
        "start": 9906
      },
      {
        "length": 32,
        "start": 10028
      },
      {
        "length": 32,
        "start": 10067
      }
    ],
    "886": [
      {
        "length": 32,
        "start": 2143
      },
      {
        "length": 32,
        "start": 6868
      },
      {
        "length": 32,
        "start": 7408
      },
      {
        "length": 32,
        "start": 7653
      }
    ]
  },
  "source": "// SPDX-License-Identifier: GPL-3.0-only\n// Copyleft: The Smart Places Protocol development team!\n\npragma solidity ^0.8.7;\n\n/***\n *     _____                      _    ______ _                      ______          _                  _ \n *    /  ___|                    | |   | ___ \\ |                     | ___ \\        | |                | |\n *    \\ `--. _ __ ___   __ _ _ __| |_  | |_/ / | __ _  ___ ___  ___  | |_/ / __ ___ | |_ ___   ___ ___ | |\n *     `--. \\ '_ ` _ \\ / _` | '__| __| |  __/| |/ _` |/ __/ _ \\/ __| |  __/ '__/ _ \\| __/ _ \\ / __/ _ \\| |\n *    /\\__/ / | | | | | (_| | |  | |_  | |   | | (_| | (_|  __/\\__ \\ | |  | | | (_) | || (_) | (_| (_) | |\n *    \\____/|_| |_| |_|\\__,_|_|   \\__| \\_|   |_|\\__,_|\\___\\___||___/ \\_|  |_|  \\___/ \\__\\___/ \\___\\___/|_|\n *                                                                                                        \n *  https://smartplacesprotocol.io\n *  https://t.me //TODO add telegram!\n */\n \n/**\n * Our lib imports. \n * Mostly OpenZeppelin stuff...\n */\nimport \"@openzeppelin/contracts/utils/Address.sol\";\nimport \"@openzeppelin/contracts/access/Ownable.sol\";\nimport \"@openzeppelin/contracts/token/ERC20/IERC20.sol\";\nimport \"@openzeppelin/contracts/utils/math/SafeMath.sol\";\n\n\n\ninterface IUniswapV2Factory {\n    event PairCreated(\n        address indexed token0,\n        address indexed token1,\n        address pair,\n        uint256\n    );\n\n    function feeTo() external view returns (address);\n    function feeToSetter() external view returns (address);\n\n    function getPair(address tokenA, address tokenB) external view returns (address pair);\n    function allPairs(uint256) external view returns (address pair);\n    function allPairsLength() external view returns (uint256);\n\n    function createPair(address tokenA, address tokenB)\n        external\n        returns (address pair);\n\n    function setFeeTo(address) external;\n    function setFeeToSetter(address) external;\n}\n\ninterface IUniswapV2Pair {\n    event Approval(\n        address indexed owner,\n        address indexed spender,\n        uint256 value\n    );\n    event Transfer(address indexed from, address indexed to, uint256 value);\n\n    function name() external pure returns (string memory);\n    function symbol() external pure returns (string memory);\n    function decimals() external pure returns (uint8);\n    function totalSupply() external view returns (uint256);\n    function balanceOf(address owner) external view returns (uint256);\n    function allowance(address owner, address spender) external view returns (uint256);\n\n    function approve(address spender, uint256 value) external returns (bool);\n    function transfer(address to, uint256 value) external returns (bool);\n    function transferFrom(address from, address to, uint256 value) external returns (bool);\n\n    function DOMAIN_SEPARATOR() external view returns (bytes32);\n    function PERMIT_TYPEHASH() external pure returns (bytes32);\n\n    function nonces(address owner) external view returns (uint256);\n    function permit(address owner, address spender, uint256 value, uint256 deadline, uint8 v, bytes32 r, bytes32 s) external;\n\n    event Mint(address indexed sender, uint256 amount0, uint256 amount1);\n    event Burn(address indexed sender, uint256 amount0, uint256 amount1, address indexed to);\n    event Swap(\n        address indexed sender,\n        uint256 amount0In,\n        uint256 amount1In,\n        uint256 amount0Out,\n        uint256 amount1Out,\n        address indexed to\n    );\n    event Sync(uint112 reserve0, uint112 reserve1);\n\n    function MINIMUM_LIQUIDITY() external pure returns (uint256);\n\n    function factory() external view returns (address);\n    function token0() external view returns (address);\n    function token1() external view returns (address);\n\n    function getReserves() external view returns (uint112 reserve0, uint112 reserve1, uint32 blockTimestampLast);\n    function price0CumulativeLast() external view returns (uint256);\n    function price1CumulativeLast() external view returns (uint256);\n    function kLast() external view returns (uint256);\n\n    function mint(address to) external returns (uint256 liquidity);\n    function burn(address to) external returns (uint256 amount0, uint256 amount1);\n    function swap(\n        uint256 amount0Out,\n        uint256 amount1Out,\n        address to,\n        bytes calldata data\n    ) external;\n\n    function skim(address to) external;\n    function sync() external;\n    function initialize(address, address) external;\n}\n\ninterface IUniswapV2Router01 {\n    function factory() external pure returns (address);\n\n    function WETH() external pure returns (address);\n\n    function addLiquidity(\n        address tokenA,\n        address tokenB,\n        uint256 amountADesired,\n        uint256 amountBDesired,\n        uint256 amountAMin,\n        uint256 amountBMin,\n        address to,\n        uint256 deadline\n    ) external returns (uint256 amountA, uint256 amountB, uint256 liquidity);\n\n    function addLiquidityETH(\n        address token,\n        uint256 amountTokenDesired,\n        uint256 amountTokenMin,\n        uint256 amountETHMin,\n        address to,\n        uint256 deadline\n    ) external payable returns (uint256 amountToken, uint256 amountETH, uint256 liquidity);\n\n    function removeLiquidity(\n        address tokenA,\n        address tokenB,\n        uint256 liquidity,\n        uint256 amountAMin,\n        uint256 amountBMin,\n        address to,\n        uint256 deadline\n    ) external returns (uint256 amountA, uint256 amountB);\n\n    function removeLiquidityETH(\n        address token,\n        uint256 liquidity,\n        uint256 amountTokenMin,\n        uint256 amountETHMin,\n        address to,\n        uint256 deadline\n    ) external returns (uint256 amountToken, uint256 amountETH);\n\n    function removeLiquidityWithPermit(\n        address tokenA,\n        address tokenB,\n        uint256 liquidity,\n        uint256 amountAMin,\n        uint256 amountBMin,\n        address to,\n        uint256 deadline,\n        bool approveMax,\n        uint8 v,\n        bytes32 r,\n        bytes32 s\n    ) external returns (uint256 amountA, uint256 amountB);\n\n    function removeLiquidityETHWithPermit(\n        address token,\n        uint256 liquidity,\n        uint256 amountTokenMin,\n        uint256 amountETHMin,\n        address to,\n        uint256 deadline,\n        bool approveMax,\n        uint8 v,\n        bytes32 r,\n        bytes32 s\n    ) external returns (uint256 amountToken, uint256 amountETH);\n\n    function swapExactTokensForTokens(\n        uint256 amountIn,\n        uint256 amountOutMin,\n        address[] calldata path,\n        address to,\n        uint256 deadline\n    ) external returns (uint256[] memory amounts);\n\n    function swapTokensForExactTokens(\n        uint256 amountOut,\n        uint256 amountInMax,\n        address[] calldata path,\n        address to,\n        uint256 deadline\n    ) external returns (uint256[] memory amounts);\n\n    function swapExactETHForTokens(\n        uint256 amountOutMin,\n        address[] calldata path,\n        address to,\n        uint256 deadline\n    ) external payable returns (uint256[] memory amounts);\n\n    function swapTokensForExactETH(\n        uint256 amountOut,\n        uint256 amountInMax,\n        address[] calldata path,\n        address to,\n        uint256 deadline\n    ) external returns (uint256[] memory amounts);\n\n    function swapExactTokensForETH(\n        uint256 amountIn,\n        uint256 amountOutMin,\n        address[] calldata path,\n        address to,\n        uint256 deadline\n    ) external returns (uint256[] memory amounts);\n\n    function swapETHForExactTokens(\n        uint256 amountOut,\n        address[] calldata path,\n        address to,\n        uint256 deadline\n    ) external payable returns (uint256[] memory amounts);\n\n    function quote(\n        uint256 amountA,\n        uint256 reserveA,\n        uint256 reserveB\n    ) external pure returns (uint256 amountB);\n\n    function getAmountOut(\n        uint256 amountIn,\n        uint256 reserveIn,\n        uint256 reserveOut\n    ) external pure returns (uint256 amountOut);\n\n    function getAmountIn(\n        uint256 amountOut,\n        uint256 reserveIn,\n        uint256 reserveOut\n    ) external pure returns (uint256 amountIn);\n\n    function getAmountsOut(uint256 amountIn, address[] calldata path) external view returns (uint256[] memory amounts);\n    function getAmountsIn(uint256 amountOut, address[] calldata path) external view returns (uint256[] memory amounts);\n}\n\ninterface IUniswapV2Router02 is IUniswapV2Router01 {\n    function removeLiquidityETHSupportingFeeOnTransferTokens(\n        address token,\n        uint256 liquidity,\n        uint256 amountTokenMin,\n        uint256 amountETHMin,\n        address to,\n        uint256 deadline\n    ) external returns (uint256 amountETH);\n\n    function removeLiquidityETHWithPermitSupportingFeeOnTransferTokens(\n        address token,\n        uint256 liquidity,\n        uint256 amountTokenMin,\n        uint256 amountETHMin,\n        address to,\n        uint256 deadline,\n        bool approveMax,\n        uint8 v,\n        bytes32 r,\n        bytes32 s\n    ) external returns (uint256 amountETH);\n\n    function swapExactTokensForTokensSupportingFeeOnTransferTokens(\n        uint256 amountIn,\n        uint256 amountOutMin,\n        address[] calldata path,\n        address to,\n        uint256 deadline\n    ) external;\n\n    function swapExactETHForTokensSupportingFeeOnTransferTokens(\n        uint256 amountOutMin,\n        address[] calldata path,\n        address to,\n        uint256 deadline\n    ) external payable;\n\n    function swapExactTokensForETHSupportingFeeOnTransferTokens(\n        uint256 amountIn,\n        uint256 amountOutMin,\n        address[] calldata path,\n        address to,\n        uint256 deadline\n    ) external;\n}\n\n/**\n  * The main Smart Places Protocol contract! This is where the magic gets defined~\n  */ \ncontract SmartPlacesProtocol is Context, IERC20, Ownable {\n    using SafeMath for uint256;\n    using Address for address;\n    \n    /* Required for calculating reflections per transfer, a-la-FLOKI */\n    mapping(address => uint256) private _rOwned;\n    mapping(address => uint256) private _tOwned;\n    mapping(address => mapping(address => uint256)) private _allowances;\n\n    mapping(address => bool) private _isExcludedFromFee; //from paying tax when transferring\n    mapping(address => bool) private _isExcluded; //from reflections\n    address[] private _excluded; //LookUp Table (LUT) for iterating through excluded wallets. Remember, mappings aren't suitable for this.\n    \n    mapping(address=>bool) private _isExcludedFromTxLimit; //Adding this for the dxsale/unicrypt presale, the router needs to be exempt from max tx amount limit.\n   \n    string private _name = \"Smart Places Protocol\";\n    string private _symbol = \"SMARTEE\";\n    uint8 private _decimals = 9;\n\n    uint256 private constant MAX = ~uint256(0);\n    uint256 private _tTotal = 1 * 10**9 * 10**_decimals; //1 billion, plus decimals\n    uint256 private _rTotal = (MAX - (MAX % _tTotal));\n    uint256 private _tFeeTotal;\n    \n    bool public antiSniping_failsafe = true;    //Acts as an emergency circuit breaker in case we need to abort the anti-sniping mechanism\n    uint256 public antiSniping_blocks = 3;\n    \n    bool public salePenalizationEnabled = false; //Will double reflections (tax) when a user is selling our token\n\n    uint256 public _taxFee = 1;     //Used to calculate reflections\n    uint256 private _previousTaxFee = _taxFee;\n    bool public shouldReflect = true;\n\n    uint256 public _liquidityFee = 1;\n    uint256 private _previousLiquidityFee = _liquidityFee;\n    bool public shouldLiquidate = true;\n    \n    bool inSwapAndLiquify;\n    bool public swapAndLiquifyEnabled = true;\n    \n    /* WORKSPACE 03 SEPT*/\n    uint256 public _marketingFee = 1;\n    uint256 private _previousMarketingFee = _marketingFee;\n    address public _marketingWalletAddress; //Affixed and created dynamically by the smart contract at construction time.\n    bool public shouldTakeMarketing = true;\n    \n    uint256 public _charityFee = 1;\n    uint256 private _previousCharityFee = _charityFee;\n    address public _charityAddress; //Dynamic, has a setter.\n    bool public shouldTakeCharity = true;\n    \n    uint256 public _burnFee = 1;\n    uint256 private _previousBurnFee = _burnFee;\n    address public _burnAddress = 0x000000000000000000000000000000000000dEaD;\n    bool public shouldBurn = true;\n    \n    uint256 private launchedAt; //Stores the block.height on which the token received its first pancake liquidity (first transfer towards the pancake pair)\n    bool private manualLaunch = false;\n    \n    IUniswapV2Router02 public immutable uniswapV2Router;    //Pointers to the DEX Router (in our case, Pancake Router v2)\n    address public immutable SmartPlacesUniswapV2Pair;      //and to our own DEX pair, for liquidity operations\n\n    uint256 public _maxTxAmount = _tTotal.div(100); //1% of total supply\n    uint256 private numTokensSellToAddToLiquidity = _maxTxAmount.div(10);   //0.1%\n                                                                            //Should always be at ~1 order of magnitude less than _maxTxAmount.\n    /* Feature request by Bjorn: The ability to turn off fees for user transfers and only tax certain kinds of txes. */                          \n    bool public noFeesBetweenUsersEnabled = false;\n    mapping(address => bool) private _shouldTakeFee;\n    \n    event MinTokensBeforeSwapUpdated(uint256 minTokensBeforeSwap);\n    event SwapAndLiquifyEnabledUpdated(bool enabled);\n    event SwapAndLiquify(\n        uint256 tokensSwapped,\n        uint256 ethReceived,\n        uint256 tokensIntoLiqudity\n    );\n    event AntiSnipingFailsafeSetTo(bool toggle);\n\n    modifier lockTheSwap {\n        inSwapAndLiquify = true;\n        _;\n        inSwapAndLiquify = false;\n    }\n    \n    /* TODO Checklist after deploying the SPP token, and preparation for a smooth presale.\n     * 1. ExcludeFromFee(), ExcludeFromReward() and ExcludeFromTxLimit() on the presaler contract (dxSale or Unicrypt, or the launchpad)\n     * 2. ExcludeFromTXLimit on the dev wallet, goddamnit \n     * 3. ExcludeFromReward() on the Dead address or towards whatever you're burning at. WARNING: If re-enabled, you'll need to run sync() on the pair address.\n     * 3. Disable SwapAndLiquify, otherwise Liquidity injections (e.g. from the presaler contract to the Pancake pair) fail.\n     *      If you want to control that, check the circular-liquidity-avoidance code in SwapAndLiquefy().\n     * 4. Re-enable all this as soon as humanly possible, even though the anti-sniping mechanism can buy you some time.\n     *      removeAllFee() and restoreAllFee() can help here, but consider keeping them private instead of public/external.\n     */\n    constructor(address param_addr) {\n        _rOwned[_msgSender()] = _rTotal;\n\n        IUniswapV2Router02 _uniswapV2Router = IUniswapV2Router02(0x10ED43C718714eb63d5aA57B78B54704E256024E); //PancakeSwap's V2 Router.\n                                                                                                              //NOTE: You HAVE to use Pancake's V2 Router, otherwise taxOnTransfer don't work.\n        //IUniswapV2Router02 _uniswapV2Router = IUniswapV2Router02(0x9Ac64Cc6e4415144C455BD8E4837Fea55603e5c3); //Pancakeswap V2 testnet\n        //Create a new uniswap pair for this new token and set the local pair pointer\n        SmartPlacesUniswapV2Pair = IUniswapV2Factory(_uniswapV2Router.factory()).createPair(address(this), _uniswapV2Router.WETH());\n\n        //Set the local router pointer\n        uniswapV2Router = _uniswapV2Router;\n\n        //Exclude owner and this contract from fee (tax)\n        _isExcludedFromFee[owner()] = true;\n        _isExcludedFromFee[address(this)] = true;\n        _marketingWalletAddress = param_addr;\n        //setMultisigOwnership(opt_multiSig);\n        \n        _isExcluded[_burnAddress] = true;   //WORKSPACE\n        _excluded.push(_burnAddress);\n\n        emit Transfer(address(0), _msgSender(), _tTotal);\n    }\n\n    function name() public view returns (string memory) {\n        return _name;\n    }\n\n    function symbol() public view returns (string memory) {\n        return _symbol;\n    }\n\n    function decimals() public view returns (uint8) {\n        return _decimals;\n    }\n\n    function totalSupply() public view override returns (uint256) {\n        return _tTotal;\n    }\n    \n    //Added in SmartPlaces v0.2: This only called once, during the first ever liquidity injection transfer, and marks the block.height in which it happened.\n    function launch() internal {\n        launchedAt = block.number;\n    }\n    \n    //and a linked getter to check whether SPP is launched or not.\n    function launched() internal view returns (bool) {\n        return launchedAt != 0;\n    }\n    \n    //Added in SmartPlaces v0.2: This is a manual override for setting the launchedAt variable. Causes the first transfer of tokens to and from anyone to set the launchedAt variable.\n    function manualLaunchOverride(bool toggle) public onlyOwner {\n        manualLaunch = toggle;\n    }\n    \n    function setAntiSnipeFailsafe(bool failsafe) public {\n        antiSniping_failsafe = failsafe;\n        emit AntiSnipingFailsafeSetTo(failsafe);\n    }\n\n    function balanceOf(address account) public view override returns (uint256) {\n        if (_isExcluded[account]) return _tOwned[account];\n        return tokenFromReflection(_rOwned[account]);\n    }\n\n    function transfer(address recipient, uint256 amount) public override returns (bool) {\n        _transfer(_msgSender(), recipient, amount);\n        return true;\n    }\n\n    function allowance(address owner, address spender) public view override returns (uint256) {\n        return _allowances[owner][spender];\n    }\n\n    function approve(address spender, uint256 amount) public override returns (bool) {\n        _approve(_msgSender(), spender, amount);\n        return true;\n    }\n\n    function transferFrom(address sender, address recipient, uint256 amount) public override returns (bool) {\n        _transfer(sender, recipient, amount);\n        _approve(\n            sender,\n            _msgSender(),\n            _allowances[sender][_msgSender()].sub(\n                amount,\n                \"ERC20: transfer amount exceeds allowance\"\n            )\n        );\n        return true;\n    }\n\n    function increaseAllowance(address spender, uint256 addedValue) public virtual returns (bool) {\n        _approve(\n            _msgSender(),\n            spender,\n            _allowances[_msgSender()][spender].add(addedValue)\n        );\n        return true;\n    }\n\n    function decreaseAllowance(address spender, uint256 subtractedValue) public virtual returns (bool) {\n        _approve(\n            _msgSender(),\n            spender,\n            _allowances[_msgSender()][spender].sub(\n                subtractedValue,\n                \"ERC20: decreased allowance below zero\"\n            )\n        );\n        return true;\n    }\n\n    function isExcludedFromReward(address account) public view returns (bool) {\n        return _isExcluded[account];\n    }\n\n    function totalFees() public view returns (uint256) {\n        return _tFeeTotal;\n    }\n\n    function deliver(uint256 tAmount) public {\n        address sender = _msgSender();\n        require(!_isExcluded[sender], \"Excluded addresses cannot call this function\");\n        (uint256 rAmount, , , , , , , ) = _getValues(tAmount, [false, false]); //Commas mean we don't care about those return values in the tuple.\n        \n        _rOwned[sender] = _rOwned[sender].sub(rAmount);\n        _rTotal = _rTotal.sub(rAmount);\n        _tFeeTotal = _tFeeTotal.add(tAmount);\n    }\n\n    function reflectionFromToken(uint256 tAmount, bool deductTransferFee) public view returns (uint256)\n    {\n        require(tAmount <= _tTotal, \"Amount must be less than supply\");\n        if (!deductTransferFee) {\n            (uint256 rAmount, , , , , , , ) = _getValues(tAmount, [false, false]);\n            \n            return rAmount;\n        } else {\n            (, uint256 rTransferAmount, , , , , , ) = _getValues(tAmount, [false, false]);\n            \n            return rTransferAmount;\n        }\n    }\n\n    function tokenFromReflection(uint256 rAmount) public view returns (uint256)\n    {\n        require(rAmount <= _rTotal, \"TokensFromReflection: Amount must be less than total reflections\");\n        uint256 currentRate = _getRate();\n        return rAmount.div(currentRate);\n    }\n\n    function excludeFromReward(address account) public onlyOwner() {\n        require(!_isExcluded[account], \"ExcludeFromReward: Account already excluded\");\n        if (_rOwned[account] > 0) {\n            _tOwned[account] = tokenFromReflection(_rOwned[account]);\n        }\n        _isExcluded[account] = true;\n        _excluded.push(account);\n    }\n\n    function includeInReward(address account) external onlyOwner() {\n        require(_isExcluded[account], \"Account is already included\");\n        for (uint256 i = 0; i < _excluded.length; i++) {\n            if (_excluded[i] == account) {\n                _excluded[i] = _excluded[_excluded.length - 1];\n                _tOwned[account] = 0;\n                _isExcluded[account] = false;\n                _excluded.pop();\n                break;\n            }\n        }\n    }\n    \n    //Adding this for SmartPlaces v0.2, for use either internally or externally, so the ILO contract can be set to be tx limit exempt.\n    function setIsExcludedFromTXLimit(address account, bool isExcluded) public onlyOwner {\n        _isExcludedFromTxLimit[account] = isExcluded;\n    }\n    \n    function isExcludedFromTXLimit(address account) public view returns (bool) {\n        return _isExcludedFromTxLimit[account];\n    }\n    \n    function excludeFromFee(address account) public onlyOwner {\n        _isExcludedFromFee[account] = true;\n    }\n\n    function includeInFee(address account) public onlyOwner {\n        _isExcludedFromFee[account] = false;\n    }\n\n    function setTaxFeePercent(uint256 taxFee) external onlyOwner() {\n        _taxFee = taxFee;\n    }\n\n    function setMarketingFeePercent(uint256 marketingFee) external onlyOwner() {\n        _marketingFee = marketingFee;\n    }\n    \n    function setLiquidityFeePercent(uint256 liquidityFee) external onlyOwner() {\n        _liquidityFee = liquidityFee;\n    }\n\n    function setMaxTxPercent(uint256 maxTxPercent) external onlyOwner() {\n        _maxTxAmount = _tTotal.mul(maxTxPercent).div(100*10**2);\n    }\n\n    function setSwapAndLiquifyEnabled(bool toggle) public onlyOwner {\n        swapAndLiquifyEnabled = toggle;\n        emit SwapAndLiquifyEnabledUpdated(toggle);\n    }\n    \n    function setAntiSnipingBlocks(uint256 blocks) public onlyOwner {\n        antiSniping_blocks = blocks;\n    }\n    \n    function setSalePenalizationEnabled(bool toggle) public onlyOwner {\n        salePenalizationEnabled = toggle;\n    }\n\n    //to recieve ETH from uniswapV2Router when swaping\n    receive() external payable {}\n\n    function _reflectFee(uint256 rFee, uint256 tFee) private {\n        _rTotal = _rTotal.sub(rFee);\n        _tFeeTotal = _tFeeTotal.add(tFee);\n    }\n    \n    struct tVector {\n        uint256 tTransferAmount;\n        uint256 tFee;\n        uint256 tLiquidity;\n        uint256 tMarketing;\n        uint256 tBurn;\n    }\n    \n    struct rVector {\n        uint256 rAmount;\n        uint256 rTransferAmount;\n        uint256 rFee;\n    }\n    \n    //Had to use structs as the stack gets too deep if we leave it like it was. Remember, only around ~16 local variables are ever allowed in the stack, params and return types included.\n    //The { }s are there for scoping, and killing unneeded vars.\n    function _getValues(uint256 tAmount, bool[2] memory isSale_isSniper) private view returns (uint256, uint256, uint256, uint256, uint256, uint256, uint256, uint256) {\n        tVector memory my_tVector;\n        rVector memory my_rVector;\n        {\n            //(uint256 tTransferAmount, uint256 tFee, uint256 tLiquidity, uint256 tMarketing, uint256 tBurn) = _getTValues(tAmount, isSale_isSniper);\n            (uint256 tTransferAmount, uint256 tFee, uint256[3] memory allFees) = _getTValues(tAmount, isSale_isSniper);\n            // The allFees array contains: pos_0: tLiquidity, pos_1: tMarketing, Pos_2: tBurn, Pos_3: tCharity if enabled.\n            my_tVector.tTransferAmount = tTransferAmount;\n            my_tVector.tFee = tFee;\n            my_tVector.tLiquidity = allFees[0];\n            my_tVector.tMarketing = allFees[1];\n            my_tVector.tBurn = allFees[2];           //WORKSPACE BETA\n        }\n        {\n            (uint256 rAmount, uint256 rTransferAmount, uint256 rFee) = _getRValues(tAmount, my_tVector.tFee, my_tVector.tLiquidity, my_tVector.tMarketing, _getRate());\n            my_rVector.rAmount = rAmount;\n            my_rVector.rTransferAmount = rTransferAmount;\n            my_rVector.rFee = rFee;\n        }\n        return (my_rVector.rAmount, my_rVector.rTransferAmount, my_rVector.rFee, my_tVector.tTransferAmount, my_tVector.tFee, my_tVector.tLiquidity, my_tVector.tMarketing, my_tVector.tBurn);\n    }\n    \n    function _getTValues(uint256 tAmount, bool[2] memory isSale_isSniper) private view returns (uint256, uint256, uint256[3] memory) { //Contains 3 values!\n        uint256 tFee = calculateTaxFee(tAmount, isSale_isSniper[0]);\n        uint256 tLiquidity = calculateLiquidityFee(tAmount);\n        uint256 tMarketing = calculateMarketingFee(tAmount, isSale_isSniper[1]);\n        uint256 tBurn = calculateBurnFee(tAmount);\n        uint256 tTransferAmount = tAmount.sub(tFee);\n        tTransferAmount = tTransferAmount.sub(tLiquidity);\n        tTransferAmount = tTransferAmount.sub(tMarketing);\n        tTransferAmount = tTransferAmount.sub(tBurn);\n        return (tTransferAmount, tFee, [tLiquidity, tMarketing, tBurn]);\n    }\n    \n    function _getRValues(uint256 tAmount, uint256 tFee, uint256 tLiquidity, uint256 tMarketing, uint256 currentRate) private pure returns (uint256, uint256, uint256) {\n        uint256 rAmount = tAmount.mul(currentRate);\n        uint256 rTransferAmount;\n        uint256 rFee;\n        {\n            rFee = tFee.mul(currentRate);\n            uint256 rLiquidity = tLiquidity.mul(currentRate);\n            uint256 rMarketing = tMarketing.mul(currentRate);\n            rTransferAmount = rAmount.sub(rFee);\n            rTransferAmount = rTransferAmount.sub(rLiquidity);\n            rTransferAmount = rTransferAmount.sub(rMarketing);\n        }\n        return (rAmount, rTransferAmount, rFee);\n    }\n\n    function _getRate() private view returns (uint256) {\n        (uint256 rSupply, uint256 tSupply) = _getCurrentSupply();\n        return rSupply.div(tSupply);\n    }\n\n    function _getCurrentSupply() private view returns (uint256, uint256) {\n        uint256 rSupply = _rTotal;\n        uint256 tSupply = _tTotal;\n        for (uint256 i = 0; i < _excluded.length; i++) {\n            if (\n                _rOwned[_excluded[i]] > rSupply ||\n                _tOwned[_excluded[i]] > tSupply\n            ) return (_rTotal, _tTotal);\n            rSupply = rSupply.sub(_rOwned[_excluded[i]]);\n            tSupply = tSupply.sub(_tOwned[_excluded[i]]);\n        }\n        if (rSupply < _rTotal.div(_tTotal)) return (_rTotal, _tTotal);\n        return (rSupply, tSupply);\n    }\n\n    function _takeLiquidity(uint256 tLiquidity) private {\n        uint256 currentRate = _getRate();\n        uint256 rLiquidity = tLiquidity.mul(currentRate);\n        _rOwned[address(this)] = _rOwned[address(this)].add(rLiquidity);\n        if (_isExcluded[address(this)])\n            _tOwned[address(this)] = _tOwned[address(this)].add(tLiquidity);\n    }\n    \n    function _takeMarketing(uint256 tMarketing) private {\n        uint256 currentRate =  _getRate();\n        uint256 rMarketing = tMarketing.mul(currentRate);\n        _rOwned[_marketingWalletAddress] = _rOwned[_marketingWalletAddress].add(rMarketing);\n        if(_isExcluded[_marketingWalletAddress])\n            _tOwned[_marketingWalletAddress] = _tOwned[_marketingWalletAddress].add(tMarketing);\n    }\n    \n    function _takeBurn(uint256 tBurn) private {\n        uint256 currentRate =  _getRate();\n        uint256 rBurn = tBurn.mul(currentRate);\n        _rOwned[_burnAddress] = _rOwned[_burnAddress].add(rBurn);\n        if(_isExcluded[_burnAddress])\n            _tOwned[_burnAddress] = _tOwned[_burnAddress].add(tBurn);\n    }\n    \n    function calculateTaxFee(uint256 _amount, bool isSale) private view returns (uint256) {\n        uint256 this_taxFee = _taxFee;\n        if(isSale){\n            this_taxFee = this_taxFee.mul(2);\n        }\n        return _amount.mul(this_taxFee).div(100);\n    }\n\n    function calculateLiquidityFee(uint256 _amount) private view returns (uint256) {\n        return _amount.mul(_liquidityFee).div(100);\n    }\n    \n    function calculateMarketingFee(uint256 _amount, bool isSniper) private view returns (uint256) {\n        uint256 this_marketingFee = _marketingFee;\n        if(isSniper){\n            this_marketingFee = uint256(90).sub(_marketingFee).sub(_taxFee).sub(_liquidityFee);\n        }\n        return _amount.mul(this_marketingFee).div(100);\n    }\n    \n    function calculateBurnFee(uint256 _amount) private view returns (uint256) {\n        return _amount.mul(_burnFee).div(100);\n    }\n\n    function setMarketingAddr(address account) external onlyOwner() {\n\t\t_marketingWalletAddress = account;\n    }\n    \n    function getMarketingAddr() public view returns (address) {\n\t\treturn _marketingWalletAddress;\n    }\n    \n    function removeAllFee() private {\n        if(_taxFee == 0 && _liquidityFee == 0) return;\n        \n        _previousTaxFee = _taxFee;\n        _previousMarketingFee = _marketingFee;\n        _previousLiquidityFee = _liquidityFee;\n        \n        _taxFee = 0;\n        _marketingFee = 0;\n        _liquidityFee = 0;\n    }\n    \n    function restoreAllFee() private {\n        _taxFee = _previousTaxFee;\n        _marketingFee = _previousMarketingFee;\n        _liquidityFee = _previousLiquidityFee;\n    }\n\n    function isExcludedFromFee(address account) public view returns (bool) {\n        return _isExcludedFromFee[account];\n    }\n\n    function _approve(\n        address owner,\n        address spender,\n        uint256 amount\n    ) private {\n        require(owner != address(0), \"ERC20: approve from the zero address\");\n        require(spender != address(0), \"ERC20: approve to the zero address\");\n\n        _allowances[owner][spender] = amount;\n        emit Approval(owner, spender, amount);\n    }\n    \n    //MARKER: This is our bread and butter.\n    function _transfer(address from, address to, uint256 amount\n    ) private {\n        require(from != address(0), \"ERC20: transfer from the zero address\");\n        require(to != address(0), \"ERC20: transfer to the zero address\");\n        require(amount > 0, \"Transfer amount must be greater than zero\");\n        \n        /* Added in SmartPlaces v0.2 - this block is only used once, and marks the launch of the token! */\n        if(!launched() && to == SmartPlacesUniswapV2Pair || manualLaunch){ \n            require(balanceOf(from) > 0, \"SMARTPLACES: Are you trying to launch without actually having tokens?\");\n            launch();\n        }\n        \n        // Fixed in SmartPlaces v0.2. This requires a && or XOR condition, otherwise it imposed maxTxLimit on anyone but the owner() address.\n        if( (from != owner() && to != owner()) && !(_isExcludedFromTxLimit[from]) ) {\n            require(amount <= _maxTxAmount, \"SMARTPLACES: Transfer amount exceeds maxTxAmount.\");\n        }\n\n        // is the token balance of this contract address over the min number of\n        // tokens that we need to initiate a swap + liquidity lock?\n        // also, don't get caught in a circular liquidity event.\n        // also, don't swap & liquify if sender is uniswap pair.\n        uint256 contractTokenBalance = balanceOf(address(this));\n        //MARKER: The contract is just putting everything to liquidity once it has it. Gotta intercept it somehow.\n        if(contractTokenBalance >= _maxTxAmount) {\n            contractTokenBalance = _maxTxAmount;\n        }\n        \n        //Should we add liquidity or not? Are we over the minimum amount?\n        bool overMinTokenBalance = (contractTokenBalance >= numTokensSellToAddToLiquidity);\n        if(swapAndLiquifyEnabled && overMinTokenBalance && !inSwapAndLiquify && from != SmartPlacesUniswapV2Pair) { //Jesus, that's a lot of conditions\n            contractTokenBalance = numTokensSellToAddToLiquidity;\n            //Add liquidity!\n            swapAndLiquify(contractTokenBalance);\n        }\n\n        //indicates if fee should be deducted from transfer\n        bool takeFees = true;\n        //if any account belongs to _isExcludedFromFee account then we don't deduct any\n        if (_isExcludedFromFee[from] || _isExcludedFromFee[to] || (noFeesBetweenUsersEnabled && !_shouldTakeFee[from]) ) {\n            takeFees = false;\n        }\n        \n        /* Added in SmartPlaces v0.2 - we raise taxation for the first 4 blocks after the launch, to penalize bots+snipers playing gas wars.\n         * No human can get to pancakeswap within 9 seconds of the first liquidity being added to the pair.\n         * If isSniper equals true, taxation is raised to 99.999%\n         */\n        bool isSniper = false;\n        if(antiSniping_failsafe && launchedAt + antiSniping_blocks >= block.number){\n        //Looks like we have a sniper here, boys.\n            isSniper = true;\n        }\n        \n        bool isSale = false;\n        //TODO: Continue building this and confirm with other devs\n        //A sale is when? When the recipient is the router, or the pair address?\n        if(to == SmartPlacesUniswapV2Pair && salePenalizationEnabled){ //It's a sell, boys!\n            isSale = true;\n        }\n\n        //transfer amount, it will take tax, marketing, liquidity fee.\n        _tokenTransfer(from, to, amount, takeFees, [isSale, isSniper]);\n    }\n\n    //this method is responsible for taking all fee, if takeFee is true\n    function _tokenTransfer(address sender, address recipient, uint256 amount, bool takeFee, bool[2] memory isSale_isSniper) private {\n        if (!takeFee) removeAllFee(); //Toggle fees off for now\n\n        if (_isExcluded[sender] && !_isExcluded[recipient]) {\n            _transferFromExcluded(sender, recipient, amount);\n        } else if (!_isExcluded[sender] && _isExcluded[recipient]) {\n            _transferToExcluded(sender, recipient, amount);\n        } else if (!_isExcluded[sender] && !_isExcluded[recipient]) {\n            _transferStandard(sender, recipient, amount, isSale_isSniper);\n        } else if (_isExcluded[sender] && _isExcluded[recipient]) {\n            _transferBothExcluded(sender, recipient, amount);\n        } else {    //Failsafe, just in case\n            _transferStandard(sender, recipient, amount, isSale_isSniper);\n        }\n\n        if (!takeFee) restoreAllFee(); //Toggle it back\n    }\n\n    function _transferStandard(address sender, address recipient, uint256 tAmount, bool[2] memory isSale_isSniper) private {\n        (\n         uint256 rAmount,\n         uint256 rTransferAmount,\n         uint256 rFee,\n         uint256 tTransferAmount,\n         uint256 tFee,\n         uint256 tLiquidity,\n         uint256 tMarketing,\n         uint256 tBurn\n        ) = _getValues(tAmount, isSale_isSniper);\n        \n        _rOwned[sender] = _rOwned[sender].sub(rAmount);\n        _rOwned[recipient] = _rOwned[recipient].add(rTransferAmount);\n        _takeLiquidity(tLiquidity);\n        _sendToMarketing(tMarketing, sender);\n        _sendToBurn(tBurn, sender);\n        _reflectFee(rFee, tFee);\n        emit Transfer(sender, recipient, tTransferAmount);\n    }\n\n    function _transferToExcluded(address sender, address recipient, uint256 tAmount) private {\n        (\n            uint256 rAmount,\n            uint256 rTransferAmount,\n            uint256 rFee,\n            uint256 tTransferAmount,\n            uint256 tFee,\n            uint256 tLiquidity,\n            uint256 tMarketing,\n            uint256 tBurn\n        ) = _getValues(tAmount, [false, false]);\n        \n        _rOwned[sender] = _rOwned[sender].sub(rAmount);\n        _tOwned[recipient] = _tOwned[recipient].add(tTransferAmount);\n        _rOwned[recipient] = _rOwned[recipient].add(rTransferAmount);\n        _takeLiquidity(tLiquidity);\n        _sendToMarketing(tMarketing, sender);\n        _sendToBurn(tBurn, sender);\n        _reflectFee(rFee, tFee);\n        emit Transfer(sender, recipient, tTransferAmount);\n    }\n\n    function _transferFromExcluded(address sender, address recipient, uint256 tAmount) private {\n        (\n            uint256 rAmount,\n            uint256 rTransferAmount,\n            uint256 rFee,\n            uint256 tTransferAmount,\n            uint256 tFee,\n            uint256 tLiquidity,\n            uint256 tMarketing,\n            uint256 tBurn\n        ) = _getValues(tAmount, [false, false]);\n    \n        _tOwned[sender] = _tOwned[sender].sub(tAmount);\n        _rOwned[sender] = _rOwned[sender].sub(rAmount);\n        _rOwned[recipient] = _rOwned[recipient].add(rTransferAmount);\n        _takeLiquidity(tLiquidity);\n        _sendToMarketing(tMarketing, sender);\n        _sendToBurn(tBurn, sender);\n        _reflectFee(rFee, tFee);\n        emit Transfer(sender, recipient, tTransferAmount);\n    }\n    \n    function _transferBothExcluded(address sender, address recipient, uint256 tAmount) private {\n        (\n            uint256 rAmount,\n            uint256 rTransferAmount,\n            uint256 rFee,\n            uint256 tTransferAmount,\n            uint256 tFee,\n            uint256 tLiquidity,\n            uint256 tMarketing,\n            uint256 tBurn\n        ) = _getValues(tAmount, [false, false]); //[isSale, isSniper].\n        \n        _tOwned[sender] = _tOwned[sender].sub(tAmount);\n        _rOwned[sender] = _rOwned[sender].sub(rAmount);\n        _tOwned[recipient] = _tOwned[recipient].add(tTransferAmount);\n        _rOwned[recipient] = _rOwned[recipient].add(rTransferAmount);\n        _takeLiquidity(tLiquidity);\n        _takeMarketing(tMarketing);\n        _takeBurn(tBurn);\n        _reflectFee(rFee, tFee);\n        emit Transfer(sender, recipient, tTransferAmount);\n    }\n    \n    function _sendToMarketing(uint256 tMarketing, address sender) private {\n        uint256 currentRate = _getRate();\n        uint256 rMarketing = tMarketing.mul(currentRate);\n        address currentMarketing = _marketingWalletAddress;\n        _rOwned[currentMarketing] = _rOwned[currentMarketing].add(rMarketing);\n        _tOwned[currentMarketing] = _tOwned[currentMarketing].add(tMarketing);\n        emit Transfer(sender, _marketingWalletAddress, tMarketing);\n    }\n    \n    function _sendToBurn(uint256 tBurn, address sender) private {  //WORKSPACE\n        uint256 currentRate = _getRate();\n        uint256 rBurn = tBurn.mul(currentRate);\n        address currentBurn = _burnAddress;\n        _rOwned[currentBurn] = _rOwned[currentBurn].add(rBurn);\n        _tOwned[currentBurn] = _tOwned[currentBurn].add(tBurn);\n        emit Transfer(sender, _burnAddress, tBurn);\n    }\n    \n    function _sendToCharity(uint256 tCharity, address sender) private {\n        uint256 currentRate = _getRate();\n        uint256 rCharity = tCharity.mul(currentRate);\n        address currentCharity = _charityAddress;\n        _rOwned[currentCharity] = _rOwned[currentCharity].add(rCharity);\n        _tOwned[currentCharity] = _tOwned[currentCharity].add(tCharity);\n        emit Transfer(sender, _charityAddress, tCharity);\n    }\n    \n    function swapAndLiquify(uint256 contractTokenBalance) private lockTheSwap {\n        // split the contract balance into 2 halves\n        uint256 half = contractTokenBalance.div(2);\n        uint256 otherHalf = contractTokenBalance.sub(half);\n\n        // capture the contract's current ETH balance.\n        // this is so that we can capture exactly the amount of ETH that the\n        // swap creates, and not make the liquidity event include any ETH that\n        // has been manually sent to the contract\n        uint256 initialBalance = address(this).balance;\n\n        // swap tokens for ETH\n        swapTokensForEth(half); // <- this breaks the ETH -> HATE swap when swap+liquify is triggered\n\n        // how much ETH did we just swap into?\n        uint256 newBalance = address(this).balance.sub(initialBalance);\n\n        // add liquidity to uniswap\n        addLiquidity(otherHalf, newBalance);\n        \n        emit SwapAndLiquify(half, newBalance, otherHalf);\n    }\n\n    function swapTokensForEth(uint256 tokenAmount) private {\n        // generate the uniswap pair path of token -> weth\n        address[] memory path = new address[](2);\n        path[0] = address(this);\n        path[1] = uniswapV2Router.WETH();\n\n        _approve(address(this), address(uniswapV2Router), tokenAmount);\n\n        // make the swap\n        uniswapV2Router.swapExactTokensForETHSupportingFeeOnTransferTokens(\n            tokenAmount,\n            0, // accept any amount of ETH\n            path,\n            address(this),\n            block.timestamp\n        );\n    }\n\n    function addLiquidity(uint256 tokenAmount, uint256 ethAmount) private {\n        // approve token transfer to cover all possible scenarios\n        _approve(address(this), address(uniswapV2Router), tokenAmount);\n\n        // add the liquidity\n        uniswapV2Router.addLiquidityETH{value: ethAmount}(\n            address(this),\n            tokenAmount,\n            0, // slippage is unavoidable\n            0, // slippage is unavoidable\n            owner(),\n            block.timestamp\n        );\n    }\n}\n",
  "sourcePath": "/home/dimitris/Documents/Code/SmartPlacesProtocol/SmartPlacesProtocol/contracts/SmartPlacesProtocol.sol",
  "compiler": {
    "name": "solc",
    "version": "0.8.7+commit.e28d00a7.Emscripten.clang"
  },
  "schemaVersion": "3.4.1",
  "updatedAt": "2021-09-05T09:42:10.917Z",
  "devdoc": {
    "kind": "dev",
    "methods": {
      "allowance(address,address)": {
        "details": "Returns the remaining number of tokens that `spender` will be allowed to spend on behalf of `owner` through {transferFrom}. This is zero by default. This value changes when {approve} or {transferFrom} are called."
      },
      "approve(address,uint256)": {
        "details": "Sets `amount` as the allowance of `spender` over the caller's tokens. Returns a boolean value indicating whether the operation succeeded. IMPORTANT: Beware that changing an allowance with this method brings the risk that someone may use both the old and the new allowance by unfortunate transaction ordering. One possible solution to mitigate this race condition is to first reduce the spender's allowance to 0 and set the desired value afterwards: https://github.com/ethereum/EIPs/issues/20#issuecomment-263524729 Emits an {Approval} event."
      },
      "balanceOf(address)": {
        "details": "Returns the amount of tokens owned by `account`."
      },
      "owner()": {
        "details": "Returns the address of the current owner."
      },
      "renounceOwnership()": {
        "details": "Leaves the contract without owner. It will not be possible to call `onlyOwner` functions anymore. Can only be called by the current owner. NOTE: Renouncing ownership will leave the contract without an owner, thereby removing any functionality that is only available to the owner."
      },
      "totalSupply()": {
        "details": "Returns the amount of tokens in existence."
      },
      "transfer(address,uint256)": {
        "details": "Moves `amount` tokens from the caller's account to `recipient`. Returns a boolean value indicating whether the operation succeeded. Emits a {Transfer} event."
      },
      "transferFrom(address,address,uint256)": {
        "details": "Moves `amount` tokens from `sender` to `recipient` using the allowance mechanism. `amount` is then deducted from the caller's allowance. Returns a boolean value indicating whether the operation succeeded. Emits a {Transfer} event."
      },
      "transferOwnership(address)": {
        "details": "Transfers ownership of the contract to a new account (`newOwner`). Can only be called by the current owner."
      }
    },
    "version": 1
  },
  "userdoc": {
    "kind": "user",
    "methods": {},
    "notice": "The main Smart Places Protocol contract! This is where the magic gets defined~",
    "version": 1
  }
}